:100000000C9472000C9493000C9493000C94930045
:100010000C9493000C9493000C9493000C94930014
:100020000C9493000C9493000C9493000C94930004
:100030000C9493000C9493000C9493000C949300F4
:100040000C9493000C9493000C9493000C949300E4
:100050000C9493000C9493000C9493000C949300D4
:100060000C9493000C94A9250C9493000C94930089
:100070000C9493000C9493000C9493000C949300B4
:100080000C9493000C9493000C9493000C949300A4
:100090000C9493000C9493000C9493000C94930094
:1000A0000C9493000C9493000C9493000C94930084
:1000B0000C9493000C9493000C9493000C94930074
:1000C0000C9493000C9493000C9493000C94930064
:1000D0000C9493000C9493000C9493000C94930054
:1000E0000C94930011241FBECFEFD1E2DEBFCDBF31
:1000F00000E00CBF13E0A0E0B2E0E6ECFFE600E0B9
:100100000BBF02C007900D92AE30B107D9F713E0D4
:10011000AEE0B3E001C01D92AB34B107E1F70E943D
:10012000AD300C94E1370C940000DF93CF93CDB742
:10013000DEB7A4E2B0E0E4E2F0E0808180628C937C
:10014000A5E2B0E0E5E2F0E0808180628C93CF919F
:10015000DF910895DF93CF93CDB7DEB7A4E2B0E08F
:10016000E4E2F0E0808180648C93A5E2B0E0E5E217
:10017000F0E0808180648C93CF91DF910895DF93CC
:10018000CF93CDB7DEB7A4E2B0E0E4E2F0E0808147
:1001900080688C93A5E2B0E0E5E2F0E080818068C1
:1001A0008C93CF91DF910895DF93CF93CDB7DEB7D6
:1001B0000E9495000E94AA000E94BF00CF91DF918B
:1001C0000895DF93CF93CDB7DEB7E1E8F0E010827A
:1001D000E5E8F0E08CEF8083E4E8F0E081E0808304
:1001E000E9E8F0E083E08083E8E8F0E08FEF8083E7
:1001F000EBE8F0E083E08083EAE8F0E08FEF8083D3
:10020000EDE8F0E083E08083ECE8F0E08FEF8083BE
:10021000E7E8F0E083E08083E6E8F0E08FEF8083BA
:10022000E0E8F0E08BEA8083E2E8F0E01082E1E8C9
:10023000F0E08CE08083CF91DF910895DF93CF933E
:10024000CDB7DEB7F8940E94D4000E94E100789404
:10025000CF91DF9108950F931F93DF93CF9300D039
:100260000F920F92CDB7DEB78D8380E090E0A0E0D3
:10027000B0E089839A83AB83BC838D81882F90E023
:10028000A0E0B0E0BC01CD010E942835DC01CB012B
:10029000BC01CD012BE734E14EEE5FE30E949833C1
:1002A000DC01CB01BC01CD0120E030E04CE052E4A8
:1002B0000E947132DC01CB0189839A83AB83BC83BA
:1002C000E9E8F0E0108208E810E069817A818B812A
:1002D0009C810E94C830DC01CB01F80180830F9023
:1002E0000F900F900F900F90CF91DF911F910F9172
:1002F00008950F931F93DF93CF9300D00F920F9227
:10030000CDB7DEB78D8380E090E0A0E0B0E08983D8
:100310009A83AB83BC838D81882F90E0A0E0B0E00E
:10032000BC01CD010E942835DC01CB01BC01CD010F
:100330002BE734E14EEE5FE30E949833DC01CB0102
:10034000BC01CD0120E030E04CE052E40E9471326B
:10035000DC01CB0189839A83AB83BC83EBE8F0E0BB
:1003600010820AE810E069817A818B819C810E9469
:10037000C830DC01CB01F80180830F900F900F9003
:100380000F900F90CF91DF911F910F9108950F93D0
:100390001F93DF93CF9300D00F920F92CDB7DEB7AC
:1003A0008D8380E090E0A0E0B0E089839A83AB8306
:1003B000BC838D81882F90E0A0E0B0E0BC01CD012E
:1003C0000E942835DC01CB01BC01CD012BE734E1D3
:1003D0004EEE5FE30E949833DC01CB01BC01CD01FE
:1003E00020E030E04CE052E40E947132DC01CB01AD
:1003F00089839A83AB83BC83EDE8F0E010820CE83C
:1004000010E069817A818B819C810E94C830DC0177
:10041000CB01F80180830F900F900F900F900F90F9
:10042000CF91DF911F910F910895DF93CF93CDB7B7
:10043000DEB7E9E8F0E083E08083E8E8F0E08FEF02
:100440008083CF91DF910895DF93CF93CDB7DEB74F
:10045000EBE8F0E083E08083EAE8F0E08FEF808370
:10046000CF91DF910895DF93CF93CDB7DEB7EDE85D
:10047000F0E083E08083ECE8F0E08FEF8083CF91C1
:10048000DF910895DF93CF93CDB7DEB76D970FB6A9
:10049000F894DEBF0FBECDBF1D8E8EE10E947901A4
:1004A00080E090E0A0EFB1E4898F9A8FAB8FBC8F92
:1004B000698D7A8D8B8D9C8D26E636E646E655E471
:1004C0000E949E32DC01CB018D8B9E8BAF8BB88F4F
:1004D0006D897E898F89988D20E030E040E85FE368
:1004E0000E94A43488232CF481E090E09C8B8B8BB9
:1004F0003FC06D897E898F89988D20E03FEF4FE75F
:1005000057E40E94443418164CF5698D7A8D8B8D12
:100510009C8D20E030E040E251E40E949E32DC01FC
:10052000CB01BC01CD010E94C830DC01CB019C8B0A
:100530008B8B0FC080E791E09A8B898B89899A8990
:100540000197F1F79A8B898B8B899C8901979C8BFA
:100550008B8B8B899C89009769F714C06D897E8984
:100560008F89988D0E94C830DC01CB019C8B8B8BCE
:100570008B899C89988B8F878F8598890197F1F754
:10058000988B8F878EE18D8F78C08D8D0E94790139
:1005900080E090E0A0EFB1E48B879C87AD87BE87B9
:1005A0006B857C858D859E8526E636E646E655E498
:1005B0000E949E32DC01CB018F839887A987BA877E
:1005C0006F81788589859A8520E030E040E85FE397
:1005D0000E94A43488232CF481E090E09E838D83D4
:1005E0003FC06F81788589859A8520E03FEF4FE78E
:1005F00057E40E94443418164CF56B857C858D8534
:100600009E8520E030E040E251E40E949E32DC0111
:10061000CB01BC01CD010E94C830DC01CB019E831F
:100620008D830FC080E791E09C838B838B819C81BD
:100630000197F1F79C838B838D819E8101979E8327
:100640008D838D819E81009769F714C06F817885B5
:1006500089859A850E94C830DC01CB019E838D83F9
:100660008D819E819A83898389819A810197F1F78F
:100670009A8389838D8D8B5F8D8F8D8D823908F460
:1006800084CF6D960FB6F894DEBF0FBECDBFCF916D
:10069000DF910895DF93CF93CDB7DEB76D970FB697
:1006A000F894DEBF0FBECDBF1D8E81E90E94790197
:1006B00080E090E0A0EFB1E4898F9A8FAB8FBC8F80
:1006C000698D7A8D8B8D9C8D26E636E646E655E45F
:1006D0000E949E32DC01CB018D8B9E8BAF8BB88F3D
:1006E0006D897E898F89988D20E030E040E85FE356
:1006F0000E94A43488232CF481E090E09C8B8B8BA7
:100700003FC06D897E898F89988D20E03FEF4FE74C
:1007100057E40E94443418164CF5698D7A8D8B8D00
:100720009C8D20E030E040E251E40E949E32DC01EA
:10073000CB01BC01CD010E94C830DC01CB019C8BF8
:100740008B8B0FC080E791E09A8B898B89899A897E
:100750000197F1F79A8B898B8B899C8901979C8BE8
:100760008B8B8B899C89009769F714C06D897E8972
:100770008F89988D0E94C830DC01CB019C8B8B8BBC
:100780008B899C89988B8F878F8598890197F1F742
:10079000988B8F8781E98D8F78C08D8D0E9479012C
:1007A00080E090E0A0EFB1E48B879C87AD87BE87A7
:1007B0006B857C858D859E8526E636E646E655E486
:1007C0000E949E32DC01CB018F839887A987BA876C
:1007D0006F81788589859A8520E030E040E85FE385
:1007E0000E94A43488232CF481E090E09E838D83C2
:1007F0003FC06F81788589859A8520E03FEF4FE77C
:1008000057E40E94443418164CF56B857C858D8521
:100810009E8520E030E040E251E40E949E32DC01FF
:10082000CB01BC01CD010E94C830DC01CB019E830D
:100830008D830FC080E791E09C838B838B819C81AB
:100840000197F1F79C838B838D819E8101979E8315
:100850008D838D819E81009769F714C06F817885A3
:1008600089859A850E94C830DC01CB019E838D83E7
:100870008D819E819A83898389819A810197F1F77D
:100880009A8389838D8D85508D8F8D8D8E3108F063
:1008900084CF6D960FB6F894DEBF0FBECDBFCF915B
:1008A000DF910895DF93CF93CDB7DEB76D970FB685
:1008B000F894DEBF0FBECDBF1D8E80E00E942B01DD
:1008C00080E090E0A0EFB1E4898F9A8FAB8FBC8F6E
:1008D000698D7A8D8B8D9C8D26E636E646E655E44D
:1008E0000E949E32DC01CB018D8B9E8BAF8BB88F2B
:1008F0006D897E898F89988D20E030E040E85FE344
:100900000E94A43488232CF481E090E09C8B8B8B94
:100910003FC06D897E898F89988D20E03FEF4FE73A
:1009200057E40E94443418164CF5698D7A8D8B8DEE
:100930009C8D20E030E040E251E40E949E32DC01D8
:10094000CB01BC01CD010E94C830DC01CB019C8BE6
:100950008B8B0FC080E791E09A8B898B89899A896C
:100960000197F1F79A8B898B8B899C8901979C8BD6
:100970008B8B8B899C89009769F714C06D897E8960
:100980008F89988D0E94C830DC01CB019C8B8B8BAA
:100990008B899C89988B8F878F8598890197F1F730
:1009A000988B8F878EE18D8F78C08D8D0E942B0163
:1009B00080E090E0A0EFB1E48B879C87AD87BE8795
:1009C0006B857C858D859E8526E636E646E655E474
:1009D0000E949E32DC01CB018F839887A987BA875A
:1009E0006F81788589859A8520E030E040E85FE373
:1009F0000E94A43488232CF481E090E09E838D83B0
:100A00003FC06F81788589859A8520E03FEF4FE769
:100A100057E40E94443418164CF56B857C858D850F
:100A20009E8520E030E040E251E40E949E32DC01ED
:100A3000CB01BC01CD010E94C830DC01CB019E83FB
:100A40008D830FC080E791E09C838B838B819C8199
:100A50000197F1F79C838B838D819E8101979E8303
:100A60008D838D819E81009769F714C06F81788591
:100A700089859A850E94C830DC01CB019E838D83D5
:100A80008D819E819A83898389819A810197F1F76B
:100A90009A8389838D8D815F8D8F8D8D893708F441
:100AA00084CF6D960FB6F894DEBF0FBECDBFCF9149
:100AB000DF910895DF93CF93CDB7DEB76D970FB673
:100AC000F894DEBF0FBECDBF1D8E88E70E942B01BC
:100AD00080E090E0A0EFB1E4898F9A8FAB8FBC8F5C
:100AE000698D7A8D8B8D9C8D26E636E646E655E43B
:100AF0000E949E32DC01CB018D8B9E8BAF8BB88F19
:100B00006D897E898F89988D20E030E040E85FE331
:100B10000E94A43488232CF481E090E09C8B8B8B82
:100B20003FC06D897E898F89988D20E03FEF4FE728
:100B300057E40E94443418164CF5698D7A8D8B8DDC
:100B40009C8D20E030E040E251E40E949E32DC01C6
:100B5000CB01BC01CD010E94C830DC01CB019C8BD4
:100B60008B8B0FC080E791E09A8B898B89899A895A
:100B70000197F1F79A8B898B8B899C8901979C8BC4
:100B80008B8B8B899C89009769F714C06D897E894E
:100B90008F89988D0E94C830DC01CB019C8B8B8B98
:100BA0008B899C89988B8F878F8598890197F1F71E
:100BB000988B8F8788E78D8F78C08D8D0E942B0151
:100BC00080E090E0A0EFB1E48B879C87AD87BE8783
:100BD0006B857C858D859E8526E636E646E655E462
:100BE0000E949E32DC01CB018F839887A987BA8748
:100BF0006F81788589859A8520E030E040E85FE361
:100C00000E94A43488232CF481E090E09E838D839D
:100C10003FC06F81788589859A8520E03FEF4FE757
:100C200057E40E94443418164CF56B857C858D85FD
:100C30009E8520E030E040E251E40E949E32DC01DB
:100C4000CB01BC01CD010E94C830DC01CB019E83E9
:100C50008D830FC080E791E09C838B838B819C8187
:100C60000197F1F79C838B838D819E8101979E83F1
:100C70008D838D819E81009769F714C06F8178857F
:100C800089859A850E94C830DC01CB019E838D83C3
:100C90008D819E819A83898389819A810197F1F759
:100CA0009A8389838D8D8A508D8F8D8D8F3108F039
:100CB00084CF6D960FB6F894DEBF0FBECDBFCF9137
:100CC000DF910895DF93CF93CDB7DEB72F970FB69F
:100CD000F894DEBF0FBECDBF1F868CE30E942B01B0
:100CE00080E090E0A0EFB1E48B879C87AD87BE8762
:100CF0006B857C858D859E8526E636E646E655E441
:100D00000E949E32DC01CB018F839887A987BA8726
:100D10006F81788589859A8520E030E040E85FE33F
:100D20000E94A43488232CF481E090E09E838D837C
:100D30003FC06F81788589859A8520E03FEF4FE736
:100D400057E40E94443418164CF56B857C858D85DC
:100D50009E8520E030E040E251E40E949E32DC01BA
:100D6000CB01BC01CD010E94C830DC01CB019E83C8
:100D70008D830FC080E791E09C838B838B819C8166
:100D80000197F1F79C838B838D819E8101979E83D0
:100D90008D838D819E81009769F714C06F8178855E
:100DA00089859A850E94C830DC01CB019E838D83A2
:100DB0008D819E819A83898389819A810197F1F738
:100DC0009A8389832F960FB6F894DEBF0FBECDBFEE
:100DD000CF91DF910895DF93CF93CDB7DEB7C254A3
:100DE000D0400FB6F894DEBF0FBECDBF9CAF8BAF27
:100DF0007EAF6DAF809100029091010221969FAF6E
:100E00008EAF219721968EAD9FAD219799234CF4FB
:100E100021968EAD9FAD2197019621969FAF8EAF03
:100E2000219721968EAD9FAD2197959587959C0131
:100E30008BAD9CAD8217930708F07CC08091350381
:100E40008F5F80933503809135030E94790180E0A4
:100E500090E0A8ECB2E48DAB9EABAFABB8AF6DA9A0
:100E60007EA98FA998AD26E636E646E655E40E94AF
:100E70009E32DC01CB0189AB9AABABABBCAB69A9B1
:100E80007AA98BA99CA920E030E040E85FE30E94AA
:100E9000A43488232CF481E090E098AB8FA73FC066
:100EA00069A97AA98BA99CA920E03FEF4FE757E4F5
:100EB0000E94443418164CF56DA97EA98FA998ADEF
:100EC00020E030E040E251E40E949E32DC01CB01A0
:100ED000BC01CD010E94C830DC01CB0198AB8FA7CB
:100EE0000FC080E791E09EA78DA78DA59EA50197D5
:100EF000F1F79EA78DA78FA598A9019798AB8FA70B
:100F00008FA598A9009769F790C069A97AA98BA9BC
:100F10009CA90E94C830DC01CB0198AB8FA78FA59C
:100F200098A99CA78BA78BA59CA50197F1F79CA7D7
:100F30008BA77BC0809135038150809335038091CE
:100F400035030E94790180E090E0A8ECB2E48FA321
:100F500098A7A9A7BAA76FA178A589A59AA526E6FB
:100F600036E646E655E40E949E32DC01CB018BA3B7
:100F70009CA3ADA3BEA36BA17CA18DA19EA120E0EB
:100F800030E040E85FE30E94A43488232CF481E041
:100F900090E09AA389A33FC06BA17CA18DA19EA1E3
:100FA00020E03FEF4FE757E40E94443418164CF519
:100FB0006FA178A589A59AA520E030E040E251E430
:100FC0000E949E32DC01CB01BC01CD010E94C830E1
:100FD000DC01CB019AA389A30FC080E791E098A31D
:100FE0008F8F8F8D98A10197F1F798A38F8F89A18B
:100FF0009AA101979AA389A389A19AA1009769F759
:1010000014C06BA17CA18DA19EA10E94C830DC01FF
:10101000CB019AA389A389A19AA19E8F8D8F8D8DD3
:101020009E8D0197F1F79E8F8D8F80910202909196
:10103000030223969FAF8EAF239723968EAD9FAD6D
:10104000239799234CF423968EAD9FAD2397019659
:1010500023969FAF8EAF239723968EAD9FAD239798
:10106000959587959C018DAD9EAD8217930708F0ED
:1010700080C0E2E2F0E089E080838AEF90E06AEFEE
:1010800070E00E94591480E090E0A0EAB1E4898FFA
:101090009A8FAB8FBC8F698D7A8D8B8D9C8D26E658
:1010A00036E646E655E40E949E32DC01CB018D8B8C
:1010B0009E8BAF8BB88F6D897E898F89988D20E04C
:1010C00030E040E85FE30E94A43488232CF481E000
:1010D00090E09C8B8B8B3FC06D897E898F89988D2A
:1010E00020E03FEF4FE757E40E94443418164CF5D8
:1010F000698D7A8D8B8D9C8D20E030E040E251E44B
:101100000E949E32DC01CB01BC01CD010E94C8309F
:10111000DC01CB019C8B8B8B0FC080E791E09A8B1D
:10112000898B89899A890197F1F79A8B898B8B89A9
:101130009C8901979C8B8B8B8B899C89009769F785
:1011400014C06D897E898F89988D0E94C830DC011A
:10115000CB019C8B8B8B8B899C89988B8F878F8500
:1011600098890197F1F7988B8F87E2E2F0E010827F
:101170007FC0E2E2F0E086E080838AEF90E06AEFF1
:1011800070E00E94591480E090E0A0EAB1E48B87FF
:101190009C87AD87BE876B857C858D859E8526E681
:1011A00036E646E655E40E949E32DC01CB018F8391
:1011B0009887A987BA876F81788589859A8520E085
:1011C00030E040E85FE30E94A43488232CF481E0FF
:1011D00090E09E838D833FC06F81788589859A8555
:1011E00020E03FEF4FE757E40E94443418164CF5D7
:1011F0006B857C858D859E8520E030E040E251E462
:101200000E949E32DC01CB01BC01CD010E94C8309E
:10121000DC01CB019E838D830FC080E791E09C832E
:101220008B838B819C810197F1F79C838B838D81CC
:101230009E8101979E838D838D819E81009769F7A2
:1012400014C06F81788589859A850E94C830DC0139
:10125000CB019E838D838D819E819A838983898131
:101260009A810197F1F79A838983E2E2F0E0108294
:10127000CE5BDF4F0FB6F894DEBF0FBECDBFCF9170
:10128000DF910895DF93CF93CDB7DEB72E970FB6DA
:10129000F894DEBF0FBECDBF88E70E94C70180E093
:1012A00090E0A6E9B3E48B879C87AD87BE876B850A
:1012B0007C858D859E8526E636E646E655E40E94C9
:1012C0009E32DC01CB018F839887A987BA876F8113
:1012D000788589859A8520E030E040E85FE30E94C8
:1012E000A43488232CF481E090E09E838D833FC05A
:1012F0006F81788589859A8520E03FEF4FE757E435
:101300000E94443418164CF56B857C858D859E852E
:1013100020E030E040E251E40E949E32DC01CB014B
:10132000BC01CD010E94C830DC01CB019E838D83BE
:101330000FC080E791E09C838B838B819C81019718
:10134000F1F79C838B838D819E8101979E838D8392
:101350008D819E81009769F714C06F81788589859A
:101360009A850E94C830DC01CB019E838D838D81DC
:101370009E819A83898389819A810197F1F79A8363
:10138000898388E70E94C7012E960FB6F894DEBFC6
:101390000FBECDBFCF91DF9108950F931F93DF93C1
:1013A000CF93CDB7DEB7C057D0400FB6F894DEBFAD
:1013B0000FBECDBFFE01E359FF4F80E090E0A0E8F3
:1013C000BFE380839183A283B3838E0107591F4FAC
:1013D000FE01E359FF4F608171818281938126E68E
:1013E00036E646E655E40E949E32DC01CB01F80168
:1013F00080839183A283B383FE01E759FF4F60810D
:1014000071818281938120E030E040E85FE30E94B7
:10141000A434882344F4FE01E959FF4F81E090E0B1
:101420009183808364C0FE01E759FF4F6081718121
:101430008281938120E03FEF4FE757E40E944434DC
:1014400018160CF043C0FE01E359FF4F6081718113
:101450008281938120E030E040E251E40E949E329C
:10146000DC01CB018E0109591F4FBC01CD010E9447
:10147000C830DC01CB01F801918380831FC0FE01DD
:10148000EB59FF4F80E791E091838083FE01EB5998
:10149000FF4F808191810197F1F7FE01EB59FF4FDA
:1014A00091838083DE01A959BF4FFE01E959FF4FA7
:1014B00080819181019711969C938E93FE01E95949
:1014C000FF4F808191810097D1F627C08E01095985
:1014D0001F4FFE01E759FF4F608171818281938127
:1014E0000E94C830DC01CB01F80191838083DE01CA
:1014F000AD59BF4FFE01E959FF4F808191818D9316
:101500009C93FE01ED59FF4F808191810197F1F786
:10151000FE01ED59FF4F91838083A8E2B0E0E8E23D
:10152000F0E080818E7F8C93A8E2B0E0E8E2F0E00A
:1015300080818D7F8C93E8E2F0E080E38083A8E2F5
:10154000B0E0E8E2F0E0808184608C93FE01E15A33
:10155000FF4F80E090E0A0EAB0E480839183A28313
:10156000B3838E01055A1F4FFE01E15AFF4F608180
:1015700071818281938126E636E646E655E40E9433
:101580009E32DC01CB01F80180839183A283B38377
:10159000FE01E55AFF4F608171818281938120E0D5
:1015A00030E040E85FE30E94A434882344F4FE0165
:1015B000E75AFF4F81E090E09183808364C0FE0191
:1015C000E55AFF4F608171818281938120E03FEF76
:1015D0004FE757E40E94443418160CF043C0FE0154
:1015E000E15AFF4F608171818281938120E030E078
:1015F00040E251E40E949E32DC01CB018E01075A89
:101600001F4FBC01CD010E94C830DC01CB01F801A5
:10161000918380831FC0FE01E95AFF4F80E791E06C
:1016200091838083FE01E95AFF4F80819181019768
:10163000F1F7FE01E95AFF4F91838083DE01A75A3B
:10164000BF4FFE01E75AFF4F8081918101971196AC
:101650009C938E93FE01E75AFF4F80819181009702
:10166000D1F627C08E01075A1F4FFE01E55AFF4FE2
:1016700060817181828193810E94C830DC01CB013D
:10168000F80191838083DE01AB5ABF4FFE01E75A18
:10169000FF4F808191818D939C93FE01EB5AFF4F08
:1016A000808191810197F1F7FE01EB5AFF4F918301
:1016B0008083A8E2B0E0E8E2F0E080818B7F8C9349
:1016C000FE01EF5AFF4F80E090E0A0E8BFE3808387
:1016D0009183A283B3838E01035B1F4FFE01EF5AF8
:1016E000FF4F608171818281938126E636E646E66E
:1016F00055E40E949E32DC01CB01F8018083918386
:10170000A283B383FE01E35BFF4F6081718182811D
:10171000938120E030E040E85FE30E94A434882316
:1017200044F4FE01E55BFF4F81E090E0918380830C
:1017300064C0FE01E35BFF4F608171818281938110
:1017400020E03FEF4FE757E40E94443418160CF0B6
:1017500043C0FE01EF5AFF4F608171818281938106
:1017600020E030E040E251E40E949E32DC01CB01F7
:101770008E01055B1F4FBC01CD010E94C830DC010A
:10178000CB01F801918380831FC0FE01E75BFF4F0F
:1017900080E791E091838083FE01E75BFF4F8081CA
:1017A00091810197F1F7FE01E75BFF4F9183808301
:1017B000DE01A55BBF4FFE01E55BFF4F808191819C
:1017C000019711969C938E93FE01E55BFF4F8081FC
:1017D00091810097D1F627C08E01055B1F4FFE0156
:1017E000E35BFF4F60817181828193810E94C830E9
:1017F000DC01CB01F80191838083DE01A95BBF4F3F
:10180000FE01E55BFF4F808191818D939C93FE01EA
:10181000E95BFF4F808191810197F1F7FE01E95B60
:10182000FF4F91838083A8E2B0E0E8E2F0E080819E
:101830008E7F8C93A8E2B0E0E8E2F0E080818D7FBB
:101840008C93E8E2F0E080E38083A8E2B0E0E8E295
:10185000F0E0808184608C93FE01ED5BFF4F80E0BF
:1018600090E0A0EAB0E480839183A283B3838E01E9
:10187000015C1F4FFE01ED5BFF4F60817181828132
:10188000938126E636E646E655E40E949E32DC0168
:10189000CB01F80180839183A283B383FE01FF967D
:1018A000608171818281938120E030E040E85FE3D4
:1018B0000E94A43488232CF481E090E09EAF8DAF89
:1018C00046C0FE01FF96608171818281938120E094
:1018D0003FEF4FE757E40E944434181664F5FE01C9
:1018E000ED5BFF4F608171818281938120E030E068
:1018F00040E251E40E949E32DC01CB01BC01CD01EB
:101900000E94C830DC01CB019EAF8DAF0FC080E7D5
:1019100091E09CAF8BAF8BAD9CAD0197F1F79CAF85
:101920008BAF8DAD9EAD01979EAF8DAF8DAD9EAD52
:10193000009769F716C0FE01FF9660817181828170
:1019400093810E94C830DC01CB019EAF8DAF8DAD7D
:101950009EAD9AAF89AF89AD9AAD0197F1F79AAF75
:1019600089AFA8E2B0E0E8E2F0E080818B7F8C9361
:1019700080E090E0A0E8BFE38DAB9EABAFABB8AF2B
:101980006DA97EA98FA998AD26E636E646E655E410
:101990000E949E32DC01CB0189AB9AABABABBCABF6
:1019A00069A97AA98BA99CA920E030E040E85FE30F
:1019B0000E94A43488232CF481E090E098AB8FA798
:1019C0003FC069A97AA98BA99CA920E03FEF4FE706
:1019D00057E40E94443418164CF56DA97EA98FA9CE
:1019E00098AD20E030E040E251E40E949E32DC01FC
:1019F000CB01BC01CD010E94C830DC01CB0198AB0A
:101A00008FA70FC080E791E09EA78DA78DA59EA50B
:101A10000197F1F79EA78DA78FA598A9019798AB7D
:101A20008FA78FA598A9009769F714C069A97AA90B
:101A30008BA99CA90E94C830DC01CB0198AB8FA771
:101A40008FA598A99CA78BA78BA59CA50197F1F7BB
:101A50009CA78BA7A8E2B0E0E8E2F0E080818E7F4F
:101A60008C93A8E2B0E0E8E2F0E080818D7F8C9377
:101A7000E8E2F0E080E38083A8E2B0E0E8E2F0E0B2
:101A8000808184608C9380E090E0A0EAB0E48FA332
:101A900098A7A9A7BAA76FA178A589A59AA526E6B0
:101AA00036E646E655E40E949E32DC01CB018BA36C
:101AB0009CA3ADA3BEA36BA17CA18DA19EA120E0A0
:101AC00030E040E85FE30E94A43488232CF481E0F6
:101AD00090E09AA389A33FC06BA17CA18DA19EA198
:101AE00020E03FEF4FE757E40E94443418164CF5CE
:101AF0006FA178A589A59AA520E030E040E251E4E5
:101B00000E949E32DC01CB01BC01CD010E94C83095
:101B1000DC01CB019AA389A30FC080E791E098A3D1
:101B20008F8F8F8D98A10197F1F798A38F8F89A13F
:101B30009AA101979AA389A389A19AA1009769F70D
:101B400014C06BA17CA18DA19EA10E94C830DC01B4
:101B5000CB019AA389A389A19AA19E8F8D8F8D8D88
:101B60009E8D0197F1F79E8F8D8FA8E2B0E0E8E29D
:101B7000F0E080818B7F8C9380E090E0A0E8BFE371
:101B8000898F9A8FAB8FBC8F698D7A8D8B8D9C8D51
:101B900026E636E646E655E40E949E32DC01CB019D
:101BA0008D8B9E8BAF8BB88F6D897E898F89988D39
:101BB00020E030E040E85FE30E94A43488232CF466
:101BC00081E090E09C8B8B8B3FC06D897E898F89F3
:101BD000988D20E03FEF4FE757E40E9444341816F9
:101BE0004CF5698D7A8D8B8D9C8D20E030E040E244
:101BF00051E40E949E32DC01CB01BC01CD010E9468
:101C0000C830DC01CB019C8B8B8B0FC080E791E04F
:101C10009A8B898B89899A890197F1F79A8B898B9D
:101C20008B899C8901979C8B8B8B8B899C890097D6
:101C300069F714C06D897E898F89988D0E94C8309C
:101C4000DC01CB019C8B8B8B8B899C89988B8F873C
:101C50008F8598890197F1F7988B8F87A8E2B0E07C
:101C6000E8E2F0E080818E7F8C93A8E2B0E0E8E2C9
:101C7000F0E080818D7F8C93E8E2F0E080E2808369
:101C8000A8E2B0E0E8E2F0E0808184608C9380E03C
:101C900090E0A0EAB0E48B879C87AD87BE876B8518
:101CA0007C858D859E8526E636E646E655E40E94CF
:101CB0009E32DC01CB018F839887A987BA876F8119
:101CC000788589859A8520E030E040E85FE30E94CE
:101CD000A43488232CF481E090E09E838D833FC060
:101CE0006F81788589859A8520E03FEF4FE757E43B
:101CF0000E94443418164CF56B857C858D859E8535
:101D000020E030E040E251E40E949E32DC01CB0151
:101D1000BC01CD010E94C830DC01CB019E838D83C4
:101D20000FC080E791E09C838B838B819C8101971E
:101D3000F1F79C838B838D819E8101979E838D8398
:101D40008D819E81009769F714C06F8178858985A0
:101D50009A850E94C830DC01CB019E838D838D81E2
:101D60009E819A83898389819A810197F1F79A8369
:101D70008983A8E2B0E0E8E2F0E080818B7F8C9379
:101D8000C059DF4F0FB6F894DEBF0FBECDBFCF9165
:101D9000DF911F910F910895DF93CF93CDB7DEB7F9
:101DA0002E970FB6F894DEBF0FBECDBF80E090E057
:101DB000A0E8BFE38B879C87AD87BE876B857C855A
:101DC0008D859E8526E636E646E655E40E949E32DF
:101DD000DC01CB018F839887A987BA876F817885CB
:101DE00089859A8520E030E040E85FE30E94A434D2
:101DF00088232CF481E090E09E838D833FC06F8127
:101E0000788589859A8520E03FEF4FE757E40E9467
:101E1000443418164CF56B857C858D859E8520E0B5
:101E200030E040E251E40E949E32DC01CB01BC0173
:101E3000CD010E94C830DC01CB019E838D830FC091
:101E400080E791E09C838B838B819C810197F1F7E4
:101E50009C838B838D819E8101979E838D838D8151
:101E60009E81009769F714C06F81788589859A856E
:101E70000E94C830DC01CB019E838D838D819E81C1
:101E80009A83898389819A810197F1F79A8389835B
:101E900088E20E94600F81E00E94600F86E00E944D
:101EA000600F8EE00E94600F80E80E94600F2E9607
:101EB0000FB6F894DEBF0FBECDBFCF91DF9108956E
:101EC000DF93CF93CDB7DEB76E970FB6F894DEBF32
:101ED0000FBECDBF8E8F8E8D8D8F8D8D807F8D8F20
:101EE000A8E2B0E0E8E2F0E080818F708C93A8E295
:101EF000B0E0E8E2F0E090818D8D892B8C93A8E230
:101F0000B0E0E8E2F0E080818E7F8C93A8E2B0E060
:101F1000E8E2F0E080818D7F8C93A8E2B0E0E8E217
:101F2000F0E0808184608C9380E090E0A0EAB0E4EF
:101F3000898F9A8FAB8FBC8F698D7A8D8B8D9C8D9D
:101F400026E636E646E655E40E949E32DC01CB01E9
:101F50008D8B9E8BAF8BB88F6D897E898F89988D85
:101F600020E030E040E85FE30E94A43488232CF4B2
:101F700081E090E09C8B8B8B3FC06D897E898F893F
:101F8000988D20E03FEF4FE757E40E944434181645
:101F90004CF5698D7A8D8B8D9C8D20E030E040E290
:101FA00051E40E949E32DC01CB01BC01CD010E94B4
:101FB000C830DC01CB019C8B8B8B0FC080E791E09C
:101FC0009A8B898B89899A890197F1F79A8B898BEA
:101FD0008B899C8901979C8B8B8B8B899C89009723
:101FE00069F714C06D897E898F89988D0E94C830E9
:101FF000DC01CB019C8B8B8B8B899C89988B8F8789
:102000008F8598890197F1F7988B8F87A8E2B0E0C8
:10201000E8E2F0E080818B7F8C938E8D8F708E8FC5
:102020008E8D8295807F8E8FA8E2B0E0E8E2F0E0AE
:1020300080818F708C93A8E2B0E0E8E2F0E09081BC
:102040008E8D892B8C93A8E2B0E0E8E2F0E08081ED
:102050008E7F8C93A8E2B0E0E8E2F0E080818D7F93
:102060008C93A8E2B0E0E8E2F0E0808184608C9399
:1020700080E090E0A0EAB0E48B879C87AD87BE87C4
:102080006B857C858D859E8526E636E646E655E49D
:102090000E949E32DC01CB018F839887A987BA8783
:1020A0006F81788589859A8520E030E040E85FE39C
:1020B0000E94A43488232CF481E090E09E838D83D9
:1020C0003FC06F81788589859A8520E03FEF4FE793
:1020D00057E40E94443418164CF56B857C858D8539
:1020E0009E8520E030E040E251E40E949E32DC0117
:1020F000CB01BC01CD010E94C830DC01CB019E8325
:102100008D830FC080E791E09C838B838B819C81C2
:102110000197F1F79C838B838D819E8101979E832C
:102120008D838D819E81009769F714C06F817885BA
:1021300089859A850E94C830DC01CB019E838D83FE
:102140008D819E819A83898389819A810197F1F794
:102150009A838983A8E2B0E0E8E2F0E080818B7F97
:102160008C936E960FB6F894DEBF0FBECDBFCF91A5
:10217000DF910895DF93CF93CDB7DEB76E970FB69B
:10218000F894DEBF0FBECDBF8E8F8E8D8D8F8D8D5F
:10219000807F8D8FA8E2B0E0E8E2F0E080818F7070
:1021A0008C93A8E2B0E0E8E2F0E090818D8D892B7D
:1021B0008C93A8E2B0E0E8E2F0E0808181608C934B
:1021C000A8E2B0E0E8E2F0E080818D7F8C93A8E2A5
:1021D000B0E0E8E2F0E0808184608C9380E090E001
:1021E000A0EAB0E4898F9A8FAB8FBC8F698D7A8D0E
:1021F0008B8D9C8D26E636E646E655E40E949E329F
:10220000DC01CB018D8B9E8BAF8BB88F6D897E8966
:102210008F89988D20E030E040E85FE30E94A4348D
:1022200088232CF481E090E09C8B8B8B3FC06D89E0
:102230007E898F89988D20E03FEF4FE757E40E9419
:10224000443418164CF5698D7A8D8B8D9C8D20E069
:1022500030E040E251E40E949E32DC01CB01BC013F
:10226000CD010E94C830DC01CB019C8B8B8B0FC051
:1022700080E791E09A8B898B89899A890197F1F798
:102280009A8B898B8B899C8901979C8B8B8B8B89F3
:102290009C89009769F714C06D897E898F89988D14
:1022A0000E94C830DC01CB019C8B8B8B8B899C8975
:1022B000988B8F878F8598890197F1F7988B8F87F7
:1022C000A8E2B0E0E8E2F0E080818B7F8C938E8D15
:1022D0008F708E8F8E8D8295807F8E8FA8E2B0E07A
:1022E000E8E2F0E080818F708C93A8E2B0E0E8E251
:1022F000F0E090818E8D892B8C93A8E2B0E0E8E22B
:10230000F0E0808181608C93A8E2B0E0E8E2F0E048
:1023100080818D7F8C93A8E2B0E0E8E2F0E08081DC
:1023200084608C9380E090E0A0EAB0E48B879C8787
:10233000AD87BE876B857C858D859E8526E636E6D6
:1023400046E655E40E949E32DC01CB018F839887DC
:10235000A987BA876F81788589859A8520E030E0E2
:1023600040E85FE30E94A43488232CF481E090E0ED
:102370009E838D833FC06F81788589859A8520E013
:102380003FEF4FE757E40E94443418164CF56B8535
:102390007C858D859E8520E030E040E251E40E94FE
:1023A0009E32DC01CB01BC01CD010E94C830DC01B2
:1023B000CB019E838D830FC080E791E09C838B834C
:1023C0008B819C810197F1F79C838B838D819E810A
:1023D00001979E838D838D819E81009769F714C03C
:1023E0006F81788589859A850E94C830DC01CB0190
:1023F0009E838D838D819E819A83898389819A8131
:102400000197F1F79A838983A8E2B0E0E8E2F0E06F
:1024100080818B7F8C936E960FB6F894DEBF0FBED3
:10242000CDBFCF91DF910895DF93CF93CDB7DEB7C6
:1024300080E80E94600FCF91DF910895DF93CF93E2
:102440000F920F92CDB7DEB79A8389830AC0E981D4
:10245000FA8180810E94BA1089819A8101969A83BB
:102460008983E981FA818081882389F70F900F9011
:10247000CF91DF910895DF93CF9300D00F92CDB726
:10248000DEB789836A838981282F30E03C832B83E0
:102490008B819C8182309105D9F02B813C81233046
:1024A000310534F48B819C818130910561F01EC02F
:1024B0002B813C812330310581F08B819C818430DC
:1024C000910581F013C08A8181580E94600F0EC06F
:1024D0008A8181540E94600F09C08A818D560E94B2
:1024E000600F04C08A818D520E94600F0F900F9080
:1024F0000F900F90CF91DF910895DF93CF93CDB7D9
:10250000DEB727970FB6F894DEBF0FBECDBF8A8324
:102510006B835D834C833F832E8319828A8188235A
:1025200019F08B81882319F40E94141204C08A8147
:102530006B810E943B128E819F818530910519F03D
:1025400089818130A9F48C819D8120E137E2B90134
:102550000E949637CB01C09690933103809330034D
:1025600080913003909131030E94BA1081E08983F9
:102570008E819F818430910519F08981813011F518
:102580008C819D8128EE33E0B9010E949637CB0102
:1025900090933303809332038091320390913303FD
:1025A0002AE030E0B9010E949637C096909340032C
:1025B00080933F0380913F03909140030E94BA10A3
:1025C00081E089838E819F818330910519F0898113
:1025D000813011F58C819D8124E630E0B9010E94A3
:1025E0009637CB019093330380933203809132036B
:1025F000909133032AE030E0B9010E949637C096EB
:1026000090933C0380933B0380913B0390913C0368
:102610000E94BA1081E089838E819F81823091056A
:1026200019F08981813011F58C819D812AE030E09B
:10263000B9010E949637CB01909333038093320304
:1026400080913203909133032AE030E0B9010E9477
:102650009637C0969093390380933803809138035E
:10266000909139030E94BA1081E089838E819F8105
:102670008130910519F08981813091F48C819D819F
:102680002AE030E0B9010E949637C09690933E034D
:1026900080933D0380913D0390913E030E94BA10C8
:1026A0008E819F81863091051CF085E40E94BA10CE
:1026B00027960FB6F894DEBF0FBECDBFCF91DF9146
:1026C0000895DF93CF93CDB7DEB7A7E2B0E0E7E29E
:1026D000F0E08081876F8C93A8E2B0E0E8E2F0E060
:1026E000808180788C93CF91DF910895DF93CF9391
:1026F000CDB7DEB7E0E3F0E01082E1E3F0E0108276
:10270000E7E0F1E01082E8E0F1E01082CF91DF91A4
:102710000895DF93CF93CDB7DEB7A1E2B0E0E1E259
:10272000F0E080818F608C93A2E2B0E0E2E2F0E022
:102730008081807F8C93AAE0B1E0EAE0F1E08081C3
:1027400088618C93ABE0B1E0EBE0F1E080818861DF
:102750008C93CF91DF910895DF93CF93CDB7DEB700
:102760000E9461130E9476130E948913CF91DF911A
:102770000895DF93CF93CDB7DEB7E1E2F1E01082A9
:10278000E5E2F1E08FEF8083E4E2F1E081E0808335
:10279000E9E2F1E01082E8E2F1E08FEF8083EBE222
:1027A000F1E01082EAE2F1E08FEF8083EDE2F1E008
:1027B0001082ECE2F1E08FEF8083E0E2F1E089EA61
:1027C0008083E1E2F1E08BE08083CF91DF91089597
:1027D000DF93CF93CDB7DEB7EAE7F0E01082EBE707
:1027E000F0E01082ECE7F0E080E28083E0E5F0E0EA
:1027F00080E88083EAE7F0E086E88083CF91DF918C
:102800000895DF93CF930F920F92CDB7DEB78A83EF
:102810008A81883020F0EBE7F0E088E080838A81CD
:1028200087708A83ECE7F0E08A8180628083AAE780
:10283000B0E0EAE7F0E0808180648C93EAE7F0E0C2
:102840008081882F90E0807190700097B9F3E9E75C
:10285000F0E080818983AAE7B0E0EAE7F0E08081D8
:1028600080618C93EBE7F0E0108289810F900F90EC
:10287000CF91DF910895DF93CF9300D0CDB7DEB72E
:1028800089836A834B838B810E9401148093340374
:1028900080913403282F30E089816A81A90123E0E7
:1028A00030E00E947D120F900F900F90CF91DF913A
:1028B0000895DF93CF930F920F92CDB7DEB7898340
:1028C0006A83E8E2F1E089818083EAE2F1E08A81CB
:1028D00080830F900F90CF91DF910895DF93CF9376
:1028E0000F920F92CDB7DEB78A8319828A818F70DB
:1028F0008A83E2E2F0E0808189838981807F898315
:1029000099818A81892B8983E2E2F0E08981808341
:102910000F900F90CF91DF910895DF93CF93CDB7B4
:10292000DEB786E00E946E14CF91DF910895DF93A9
:10293000CF93CDB7DEB789E00E946E14CF91DF91BF
:102940000895DF93CF93CDB7DEB780E00E946E1479
:10295000CF91DF910895DF93CF93CDB7DEB785E0B8
:102960000E946E14CF91DF910895DF93CF93CDB77E
:10297000DEB78AE00E946E14CF91DF910895DF9355
:10298000CF93CDB7DEB7F8940E94AC130E94E81342
:102990000E94B9137894CF91DF910895DF93CF937C
:1029A000CDB7DEB7A0970FB6F894DEBF0FBECDBF90
:1029B0009E8F8D8F78A36F8F8D8D9E8D009709F4DC
:1029C000D2C18F8D98A18130910519F40E948D1488
:1029D00002C00E94971483E00E94011480930E03AA
:1029E00082E00E94011480930F0381E00E94011491
:1029F0008093100381E061E043E00E943B1481E09A
:102A000065E042E00E943B1481E069E041E00E9401
:102A10003B1480910E038931B8F480910F03893102
:102A200098F480911003893178F48F8D98A18130CA
:102A3000910529F486E96AEF0E945914CCCF8AEFF8
:102A400066E90E945914C7CF80910E038931B8F40A
:102A500080910F03893198F4809110038A3178F0C6
:102A60008F8D98A18130910529F48AEF68EC0E943E
:102A70005914B1CF88EC6AEF0E945914ACCF809101
:102A80000E03893168F480910F038A3148F08091F8
:102A90001003893128F48AEF6AEF0E9459149BCF02
:102AA00080910E038931B8F480910F038A3198F038
:102AB000809110038A3178F08F8D98A18130910533
:102AC00029F48CED68EC0E94591485CF88EC6CEDEC
:102AD0000E94591480CF80910E038A31B8F0809102
:102AE0000F03893198F480911003893178F48F8D28
:102AF00098A18130910529F488EC6AEF0E9459145D
:102B00006ACF8AEF68EC0E94591465CF80910E035A
:102B10008A3168F080910F03893148F48091100365
:102B20008A3128F08AEF6AEF0E94591454CF8091BD
:102B30000E038A31B8F080910F038A3198F08091AA
:102B40001003893178F48F8D98A18130910529F493
:102B500088EC6CED0E9459143ECF8CED68EC0E941D
:102B6000591439CF80910E038A3108F434CF809103
:102B70000F038A3108F42FCF809110038A3108F4B3
:102B80002ACF0E94A11480E060E00E94591480E0E6
:102B900090E0AAEFB3E4898F9A8FAB8FBC8F698DD9
:102BA0007A8D8B8D9C8D26E636E646E655E40E94AE
:102BB0009E32DC01CB018D8B9E8BAF8BB88F6D89E4
:102BC0007E898F89988D20E030E040E85FE30E94A5
:102BD000A43488232CF481E090E09C8B8B8B3FC045
:102BE0006D897E898F89988D20E03FEF4FE757E40C
:102BF0000E94443418164CF5698D7A8D8B8D9C8D0E
:102C000020E030E040E251E40E949E32DC01CB0142
:102C1000BC01CD010E94C830DC01CB019C8B8B8BA9
:102C20000FC080E791E09A8B898B89899A890197F7
:102C3000F1F79A8B898B8B899C8901979C8B8B8B65
:102C40008B899C89009769F714C06D897E898F896B
:102C5000988D0E94C830DC01CB019C8B8B8B8B89BB
:102C60009C89988B8F878F8598890197F1F7988B2E
:102C70008F878D8D9E8D01972F8D38A1B9010E9470
:102C8000CE1480E090E0AAEFB3E48B879C87AD87F9
:102C9000BE876B857C858D859E8526E636E646E675
:102CA00055E40E949E32DC01CB018F839887A9876F
:102CB000BA876F81788589859A8520E030E040E881
:102CC0005FE30E94A43488232CF481E090E09E838B
:102CD0008D833FC06F81788589859A8520E03FEF9D
:102CE0004FE757E40E94443418164CF56B857C85F9
:102CF0008D859E8520E030E040E251E40E949E32C6
:102D0000DC01CB01BC01CD010E94C830DC01CB014C
:102D10009E838D830FC080E791E09C838B838B81A2
:102D20009C810197F1F79C838B838D819E81019714
:102D30009E838D838D819E81009769F714C06F817A
:102D4000788589859A850E94C830DC01CB019E83F5
:102D50008D838D819E819A83898389819A81019750
:102D6000F1F79A838983A0960FB6F894DEBF0FBE61
:102D7000CDBFCF91DF910895DF93CF93CDB7DEB76D
:102D800062970FB6F894DEBF0FBECDBF988B8F87CA
:102D90007A8B698B8F859889009729F489899A891C
:102DA000009709F48DC089899A89009739F48F8535
:102DB000988961E070E00E94CE1482C08F85988966
:102DC00061E070E00E94CE1480E06AEF0E94591426
:102DD00080E090E8ABE3B5E48B879C87AD87BE8746
:102DE0006B857C858D859E8526E636E646E655E430
:102DF0000E949E32DC01CB018F839887A987BA8716
:102E00006F81788589859A8520E030E040E85FE32E
:102E10000E94A43488232CF481E090E09E838D836B
:102E20003FC06F81788589859A8520E03FEF4FE725
:102E300057E40E94443418164CF56B857C858D85CB
:102E40009E8520E030E040E251E40E949E32DC01A9
:102E5000CB01BC01CD010E94C830DC01CB019E83B7
:102E60008D830FC080E791E09C838B838B819C8155
:102E70000197F1F79C838B838D819E8101979E83BF
:102E80008D838D819E81009769F714C06F8178854D
:102E900089859A850E94C830DC01CB019E838D8391
:102EA0008D819E819A83898389819A810197F1F727
:102EB0009A83898389899A8961E070E00E94CE149F
:102EC00062960FB6F894DEBF0FBECDBFCF91DF91F3
:102ED00008950F931F93DF93CF93CDB7DEB7C85EEE
:102EE000D0400FB6F894DEBF0FBECDBFFE01EF514C
:102EF000FF4F91838083FE01ED51FF4F718360830B
:102F0000FE01EB51FF4F51834083FE01E951FF4F1A
:102F100031832083FE01ED51FF4FDE01A951BF4FE8
:102F2000208131818D919C9111972817390709F0E3
:102F300046C0FE01EF51FF4FDE01AB51BF4F208174
:102F400031818D919C91119728173907A0F4FE01CA
:102F5000EB51FF4FDE01AF51BF4F208131818D9189
:102F60009C91A901481B590BCA0161E070E00E94C5
:102F7000CE140C945423FE01EF51FF4FDE01AB51F0
:102F8000BF4F208131818D919C91119782179307BA
:102F900010F00C945423FE01EF51FF4FDE01AB51B2
:102FA000BF4F208131818D919C91F901E81BF90B74
:102FB000CF0160E070E00E94CE140C945423FE0117
:102FC000ED51FF4FDE01A951BF4F208131818D911D
:102FD0009C9111972817390708F04DC6FE01EF5153
:102FE000FF4FDE01AB51BF4F208131818D919C910C
:102FF00011978217930708F42AC3FE01EF51FF4F80
:10300000DE01AB51BF4F208131818D919C91119791
:103010002817390739F481E090E060E070E00E9401
:10302000CE1423C0FE01EB51FF4F808191819C01A2
:1030300021503040FE01EF51FF4F80819181821776
:10304000930798F4FE01EB51FF4FDE01AF51BF4FE4
:10305000208131818D919C91A901481B590BCA0196
:10306000019761E070E00E94CE14FE01E352FF4F31
:1030700080E090E0A1EEB3E480839183A283B383E8
:103080008E0107521F4FFE01E352FF4F6081718195
:103090008281938126E636E646E655E40E949E321A
:1030A000DC01CB01F80180839183A283B383FE010D
:1030B000E752FF4F608171818281938120E030E08F
:1030C00040E85FE30E94A434882344F4FE01E952FF
:1030D000FF4F81E090E09183808364C0FE01E7525E
:1030E000FF4F608171818281938120E03FEF4FE744
:1030F00057E40E94443418160CF043C0FE01E3521A
:10310000FF4F608171818281938120E030E040E255
:1031100051E40E949E32DC01CB018E0109521F4F07
:10312000BC01CD010E94C830DC01CB01F8019183C4
:1031300080831FC0FE01EB52FF4F80E791E0918337
:103140008083FE01EB52FF4F808191810197F1F75F
:10315000FE01EB52FF4F91838083DE01A952BF4FE6
:10316000FE01E952FF4F80819181019711969C9356
:103170008E93FE01E952FF4F808191810097D1F635
:1031800027C08E0109521F4FFE01E752FF4F608199
:103190007181828193810E94C830DC01CB01F801EA
:1031A00091838083DE01AD52BF4FFE01E952FF4F94
:1031B000808191818D939C93FE01ED52FF4F808120
:1031C00091810197F1F7FE01ED52FF4F91838083CA
:1031D0008AEF6AEF0E9459140E94B514FE01E15370
:1031E000FF4F80E090E8A9E0B4E480839183A2835C
:1031F000B3838E0105531F4FFE01E153FF4F6081E2
:1032000071818281938126E636E646E655E40E9486
:103210009E32DC01CB01F80180839183A283B383CA
:10322000FE01E553FF4F608171818281938120E02F
:1032300030E040E85FE30E94A434882344F4FE01B8
:10324000E753FF4F81E090E09183808364C0FE01EB
:10325000E553FF4F608171818281938120E03FEFD0
:103260004FE757E40E94443418160CF043C0FE01A7
:10327000E153FF4F608171818281938120E030E0D2
:1032800040E251E40E949E32DC01CB018E010753E3
:103290001F4FBC01CD010E94C830DC01CB01F801F9
:1032A000918380831FC0FE01E953FF4F80E791E0C7
:1032B00091838083FE01E953FF4F808191810197C3
:1032C000F1F7FE01E953FF4F91838083DE01A7539D
:1032D000BF4FFE01E753FF4F808191810197119607
:1032E0009C938E93FE01E753FF4F8081918100975D
:1032F000D1F627C08E0107531F4FFE01E553FF4F44
:1033000060817181828193810E94C830DC01CB0190
:10331000F80191838083DE01AB53BF4FFE01E75379
:10332000FF4F808191818D939C93FE01EB53FF4F62
:10333000808191810197F1F7FE01EB53FF4F91835B
:103340008083FE01E951FF4FDE01AD51BF4F208167
:1033500031818D919C91A901481B590BCA0161E0F3
:1033600070E00E94CE14FE01EF53FF4F80E090E02A
:10337000A1EEB3E480839183A283B3838E010354CF
:103380001F4FFE01EF53FF4F608171818281938156
:1033900026E636E646E655E40E949E32DC01CB0185
:1033A000F80180839183A283B383FE01E354FF4F2E
:1033B000608171818281938120E030E040E85FE3A9
:1033C0000E94A434882344F4FE01E554FF4F81E0B9
:1033D00090E09183808364C0FE01E354FF4F6081DD
:1033E00071818281938120E03FEF4FE757E40E9493
:1033F000443418160CF043C0FE01EF53FF4F6081B8
:1034000071818281938120E030E040E251E40E94AA
:103410009E32DC01CB018E0105541F4FBC01CD0152
:103420000E94C830DC01CB01F801918380831FC06A
:10343000FE01E754FF4F80E791E091838083FE0116
:10344000E754FF4F808191810197F1F7FE01E75426
:10345000FF4F91838083DE01A554BF4FFE01E554E9
:10346000FF4F80819181019711969C938E93FE016D
:10347000E554FF4F808191810097D1F627C08E01DE
:1034800005541F4FFE01E354FF4F6081718182811B
:1034900093810E94C830DC01CB01F80191838083C5
:1034A000DE01A954BF4FFE01E554FF4F8081918199
:1034B0008D939C93FE01E954FF4F80819181019788
:1034C000F1F7FE01E954FF4F918380838AEF6AEFA1
:1034D0000E9459140E94AB14FE01ED54FF4F80E08E
:1034E00090E8A9E0B4E480839183A283B3838E0142
:1034F00001551F4FFE01ED54FF4F608171818281A4
:10350000938126E636E646E655E40E949E32DC01CB
:10351000CB01F80180839183A283B383FE01E1553F
:10352000FF4F608171818281938120E030E040E82B
:103530005FE30E94A434882344F4FE01E355FF4F67
:1035400081E090E09183808364C0FE01E155FF4FEC
:10355000608171818281938120E03FEF4FE757E4E2
:103560000E94443418160CF043C0FE01ED54FF4F86
:10357000608171818281938120E030E040E251E4FA
:103580000E949E32DC01CB018E0103551F4FBC010E
:10359000CD010E94C830DC01CB01F801918380830A
:1035A0001FC0FE01E555FF4F80E791E091838083C6
:1035B000FE01E555FF4F808191810197F1F7FE01F2
:1035C000E555FF4F91838083DE01A355BF4FFE0178
:1035D000E355FF4F80819181019711969C938E93C3
:1035E000FE01E355FF4F808191810097D1F627C0FE
:1035F0008E0103551F4FFE01E155FF4F6081718120
:10360000828193810E94C830DC01CB01F801918353
:103610008083DE01A755BF4FFE01E355FF4F808138
:1036200091818D939C93FE01E755FF4F808191819D
:103630000197F1F7FE01E755FF4F9183808381E009
:1036400090E061E070E00E94CE140C945423FE01DF
:10365000EF51FF4F808191819C0121503040FE014C
:10366000EB51FF4F808191818217930798F4FE01FF
:10367000EF51FF4FDE01AB51BF4F208131818D9162
:103680009C91A901481B590BCA01019760E070E0A9
:103690000E94CE14FE01EB55FF4F80E090E0A1EEBA
:1036A000B3E480839183A283B3838E010F551F4FB0
:1036B000FE01EB55FF4F608171818281938126E687
:1036C00036E646E655E40E949E32DC01CB01F80165
:1036D00080839183A283B383FE01EF55FF4F608106
:1036E00071818281938120E030E040E85FE30E94B5
:1036F000A434882344F4FE01E156FF4F81E090E0BA
:103700009183808364C0FE01EF55FF4F608171811A
:103710008281938120E03FEF4FE757E40E944434D9
:1037200018160CF043C0FE01EB55FF4F608171810C
:103730008281938120E030E040E251E40E949E3299
:10374000DC01CB018E0101561F4FBC01CD010E944F
:10375000C830DC01CB01F801918380831FC0FE01DA
:10376000E356FF4F80E791E091838083FE01E356AB
:10377000FF4F808191810197F1F7FE01E356FF4FE2
:1037800091838083DE01A156BF4FFE01E156FF4FBA
:1037900080819181019711969C938E93FE01E15651
:1037A000FF4F808191810097D1F627C08E0101568D
:1037B0001F4FFE01EF55FF4F608171818281938120
:1037C0000E94C830DC01CB01F80191838083DE01C7
:1037D000A556BF4FFE01E156FF4F808191818D9329
:1037E0009C93FE01E556FF4F808191810197F1F78F
:1037F000FE01E556FF4F918380838AEF6AEF0E94B6
:1038000059140E94B514FE01E956FF4F80E090E87C
:10381000A9E0B4E480839183A283B3838E010D5623
:103820001F4FFE01E956FF4F6081718182819381B4
:1038300026E636E646E655E40E949E32DC01CB01E0
:10384000F80180839183A283B383FE01ED56FF4F7D
:10385000608171818281938120E030E040E85FE304
:103860000E94A434882344F4FE01EF56FF4F81E008
:1038700090E09183808364C0FE01ED56FF4F60812C
:1038800071818281938120E03FEF4FE757E40E94EE
:10389000443418160CF043C0FE01E956FF4F608116
:1038A00071818281938120E030E040E251E40E9406
:1038B0009E32DC01CB018E010F561F4FBC01CD01A2
:1038C0000E94C830DC01CB01F801918380831FC0C6
:1038D000FE01E157FF4F80E791E091838083FE0175
:1038E000E157FF4F808191810197F1F7FE01E15788
:1038F000FF4F91838083DE01AF56BF4FFE01EF562D
:10390000FF4F80819181019711969C938E93FE01C8
:10391000EF56FF4F808191810097D1F627C08E012D
:103920000F561F4FFE01ED56FF4F6081718182815E
:1039300093810E94C830DC01CB01F8019183808320
:10394000DE01A357BF4FFE01EF56FF4F80819181EB
:103950008D939C93FE01E357FF4F808191810197E6
:10396000F1F7FE01E357FF4F91838083FE01E95198
:10397000FF4FDE01AD51BF4F208131818D919C9170
:10398000A901481B590BCA0161E070E00E94CE14E6
:10399000FE01E757FF4F80E090E0A1EEB3E48083A3
:1039A0009183A283B3838E010B571F4FFE01E7570C
:1039B000FF4F608171818281938126E636E646E67B
:1039C00055E40E949E32DC01CB01F8018083918393
:1039D000A283B383FE01EB57FF4F60817181828127
:1039E000938120E030E040E85FE30E94A434882324
:1039F00044F4FE01ED57FF4F81E090E09183808316
:103A000064C0FE01EB57FF4F608171818281938119
:103A100020E03FEF4FE757E40E94443418160CF0C3
:103A200043C0FE01E757FF4F60817181828193811E
:103A300020E030E040E251E40E949E32DC01CB0104
:103A40008E010D571F4FBC01CD010E94C830DC0113
:103A5000CB01F801918380831FC0FE01EF57FF4F18
:103A600080E791E091838083FE01EF57FF4F8081D3
:103A700091810197F1F7FE01EF57FF4F918380830A
:103A8000DE01AD57BF4FFE01ED57FF4F80819181A1
:103A9000019711969C938E93FE01ED57FF4F808105
:103AA00091810097D1F627C08E010D571F4FFE015F
:103AB000EB57FF4F60817181828193810E94C830F2
:103AC000DC01CB01F80191838083DE01A158BF4F57
:103AD000FE01ED57FF4F808191818D939C93FE01F4
:103AE000E158FF4F808191810197F1F7FE01E15884
:103AF000FF4F918380838AEF6AEF0E9459140E94DE
:103B0000B514FE01E558FF4F80E090E8A9E0B4E469
:103B100080839183A283B3838E0109581F4FFE01D6
:103B2000E558FF4F608171818281938126E636E6F8
:103B300046E655E40E949E32DC01CB01F801808309
:103B40009183A283B383FE01E958FF4F60817181A5
:103B50008281938120E030E040E85FE30E94A4345A
:103B6000882344F4FE01EB58FF4F81E090E09183FD
:103B7000808364C0FE01E958FF4F608171818281BA
:103B8000938120E03FEF4FE757E40E94443418163A
:103B90000CF043C0FE01E558FF4F608171818281C6
:103BA000938120E030E040E251E40E949E32DC014B
:103BB000CB018E010B581F4FBC01CD010E94C830B4
:103BC000DC01CB01F801918380831FC0FE01ED5819
:103BD000FF4F80E791E091838083FE01ED58FF4F16
:103BE000808191810197F1F7FE01ED58FF4F91839C
:103BF0008083DE01AB58BF4FFE01EB58FF4F808141
:103C00009181019711969C938E93FE01EB58FF4F83
:103C1000808191810097D1F627C08E010B581F4FEC
:103C2000FE01E958FF4F60817181828193810E947A
:103C3000C830DC01CB01F80191838083DE01AF58ED
:103C4000BF4FFE01EB58FF4F808191818D939C9374
:103C5000FE01EF58FF4F808191810197F1F7FE013E
:103C6000EF58FF4F9183808381E090E061E070E046
:103C70000E94CE1419C5FE01EF51FF4FDE01AB517A
:103C8000BF4F208131818D919C91119782179307AD
:103C900008F4FBC2FE01EF51FF4FDE01AB51BF4FF5
:103CA000208131818D919C9111972817390739F422
:103CB00081E090E060E070E00E94CE1423C0FE013D
:103CC000EB51FF4F808191819C0121503040FE01DA
:103CD000EF51FF4F808191818217930798F4FE0185
:103CE000EB51FF4FDE01AF51BF4F208131818D91EC
:103CF0009C91A901481B590BCA01019761E070E032
:103D00000E94CE14FE01E359FF4F80E090E0A1EE47
:103D1000B3E480839183A283B3838E0107591F4F3D
:103D2000FE01E359FF4F608171818281938126E614
:103D300036E646E655E40E949E32DC01CB01F801EE
:103D400080839183A283B383FE01E759FF4F608193
:103D500071818281938120E030E040E85FE30E943E
:103D6000A434882344F4FE01E959FF4F81E090E038
:103D70009183808364C0FE01E759FF4F60817181A8
:103D80008281938120E03FEF4FE757E40E94443463
:103D900018160CF043C0FE01E359FF4F608171819A
:103DA0008281938120E030E040E251E40E949E3223
:103DB000DC01CB018E0109591F4FBC01CD010E94CE
:103DC000C830DC01CB01F801918380831FC0FE0164
:103DD000EB59FF4F80E791E091838083FE01EB591F
:103DE000FF4F808191810197F1F7FE01EB59FF4F61
:103DF00091838083DE01A959BF4FFE01E959FF4F2E
:103E000080819181019711969C938E93FE01E959CF
:103E1000FF4F808191810097D1F627C08E0109590B
:103E20001F4FFE01E759FF4F6081718182819381AD
:103E30000E94C830DC01CB01F80191838083DE0150
:103E4000AD59BF4FFE01E959FF4F808191818D939C
:103E50009C93FE01ED59FF4F808191810197F1F70D
:103E6000FE01ED59FF4F918380838AEF6AEF0E9434
:103E700059140E94AB14FE01E15AFF4F80E090E814
:103E8000A9E0B4E480839183A283B3838E01055AB1
:103E90001F4FFE01E15AFF4F608171818281938142
:103EA00026E636E646E655E40E949E32DC01CB016A
:103EB000F80180839183A283B383FE01E55AFF4F0B
:103EC000608171818281938120E030E040E85FE38E
:103ED0000E94A434882344F4FE01E75AFF4F81E096
:103EE00090E09183808364C0FE01E55AFF4F6081BA
:103EF00071818281938120E03FEF4FE757E40E9478
:103F0000443418160CF043C0FE01E15AFF4F6081A3
:103F100071818281938120E030E040E251E40E948F
:103F20009E32DC01CB018E01075A1F4FBC01CD012F
:103F30000E94C830DC01CB01F801918380831FC04F
:103F4000FE01E95AFF4F80E791E091838083FE01F3
:103F5000E95AFF4F808191810197F1F7FE01E95AFB
:103F6000FF4F91838083DE01A75ABF4FFE01E75ABE
:103F7000FF4F80819181019711969C938E93FE0152
:103F8000E75AFF4F808191810097D1F627C08E01BB
:103F9000075A1F4FFE01E55AFF4F608171818281F0
:103FA00093810E94C830DC01CB01F80191838083AA
:103FB000DE01AB5ABF4FFE01E75AFF4F808191816E
:103FC0008D939C93FE01EB5AFF4F80819181019765
:103FD000F1F7FE01EB5AFF4F91838083FE01E95117
:103FE000FF4FDE01AD51BF4F208131818D919C91FA
:103FF000A901481B590BCA0161E070E00E94CE1470
:10400000FE01EF5AFF4F80E090E0A1EEB3E4808321
:104010009183A283B3838E01035B1F4FFE01EF5A8E
:10402000FF4F608171818281938126E636E646E604
:1040300055E40E949E32DC01CB01F801808391831C
:10404000A283B383FE01E35BFF4F608171818281B4
:10405000938120E030E040E85FE30E94A4348823AD
:1040600044F4FE01E55BFF4F81E090E091838083A3
:1040700064C0FE01E35BFF4F6081718182819381A7
:1040800020E03FEF4FE757E40E94443418160CF04D
:1040900043C0FE01EF5AFF4F60817181828193819D
:1040A00020E030E040E251E40E949E32DC01CB018E
:1040B0008E01055B1F4FBC01CD010E94C830DC01A1
:1040C000CB01F801918380831FC0FE01E75BFF4FA6
:1040D00080E791E091838083FE01E75BFF4F808161
:1040E00091810197F1F7FE01E75BFF4F9183808398
:1040F000DE01A55BBF4FFE01E55BFF4F8081918133
:10410000019711969C938E93FE01E55BFF4F808192
:1041100091810097D1F627C08E01055B1F4FFE01EC
:10412000E35BFF4F60817181828193810E94C8307F
:10413000DC01CB01F80191838083DE01A95BBF4FD5
:10414000FE01E55BFF4F808191818D939C93FE0181
:10415000E95BFF4F808191810197F1F7FE01E95BF7
:10416000FF4F918380838AEF6AEF0E9459140E9467
:10417000B514FE01ED5BFF4F80E090E8A9E0B4E4E8
:1041800080839183A283B3838E01015C1F4FFE0164
:10419000ED5BFF4F608171818281938126E636E677
:1041A00046E655E40E949E32DC01CB01F801808393
:1041B0009183A283B383FE01FF9660817181828126
:1041C000938120E030E040E85FE30E94A43488233C
:1041D0002CF481E090E09EAF8DAF46C0FE01FF96CB
:1041E000608171818281938120E03FEF4FE757E446
:1041F0000E944434181664F5FE01ED5BFF4F6081A8
:1042000071818281938120E030E040E251E40E949C
:104210009E32DC01CB01BC01CD010E94C830DC0123
:10422000CB019EAF8DAF0FC080E791E09CAF8BAF0D
:104230008BAD9CAD0197F1F79CAF8BAF8DAD9EAD73
:1042400001979EAF8DAF8DAD9EAD009769F716C0FB
:10425000FE01FF9660817181828193810E94C83046
:10426000DC01CB019EAF8DAF8DAD9EAD9AAF89AF16
:1042700089AD9AAD0197F1F79AAF89AF81E090E0EF
:1042800061E070E00E94CE140FC2FE01EF51FF4FBB
:10429000808191819C0121503040FE01EB51FF4F04
:1042A000808191818217930798F4FE01EF51FF4FAF
:1042B000DE01AB51BF4F208131818D919C91A901CD
:1042C000481B590BCA01019760E070E00E94CE14B0
:1042D00080E090E0A1EEB3E48DAB9EABAFABB8AFA6
:1042E0006DA97EA98FA998AD26E636E646E655E487
:1042F0000E949E32DC01CB0189AB9AABABABBCAB6D
:1043000069A97AA98BA99CA920E030E040E85FE385
:104310000E94A43488232CF481E090E098AB8FA70E
:104320003FC069A97AA98BA99CA920E03FEF4FE77C
:1043300057E40E94443418164CF56DA97EA98FA944
:1043400098AD20E030E040E251E40E949E32DC0172
:10435000CB01BC01CD010E94C830DC01CB0198AB80
:104360008FA70FC080E791E09EA78DA78DA59EA582
:104370000197F1F79EA78DA78FA598A9019798ABF4
:104380008FA78FA598A9009769F714C069A97AA982
:104390008BA99CA90E94C830DC01CB0198AB8FA7E8
:1043A0008FA598A99CA78BA78BA59CA50197F1F732
:1043B0009CA78BA78AEF6AEF0E9459140E94AB1446
:1043C00080E090E8A9E0B4E48FA398A7A9A7BAA7D2
:1043D0006FA178A589A59AA526E636E646E655E4B6
:1043E0000E949E32DC01CB018BA39CA3ADA3BEA394
:1043F0006BA17CA18DA19EA120E030E040E85FE3AD
:104400000E94A43488232CF481E090E09AA389A32D
:104410003FC06BA17CA18DA19EA120E03FEF4FE7A3
:1044200057E40E94443418164CF56FA178A589A56D
:104430009AA520E030E040E251E40E949E32DC0187
:10444000CB01BC01CD010E94C830DC01CB019AA395
:1044500089A30FC080E791E098A38F8F8F8D98A1DB
:104460000197F1F798A38F8F89A19AA101979AA339
:1044700089A389A19AA1009769F714C06BA17CA1B7
:104480008DA19EA10E94C830DC01CB019AA389A313
:1044900089A19AA19E8F8D8F8D8D9E8D0197F1F7A9
:1044A0009E8F8D8FFE01E951FF4FDE01AD51BF4F51
:1044B000208131818D919C91F901E81BF90BCF018D
:1044C00061E070E00E94CE1480E090E0A1EEB3E4E1
:1044D000898F9A8FAB8FBC8F698D7A8D8B8D9C8DD8
:1044E00026E636E646E655E40E949E32DC01CB0124
:1044F0008D8B9E8BAF8BB88F6D897E898F89988DC0
:1045000020E030E040E85FE30E94A43488232CF4EC
:1045100081E090E09C8B8B8B3FC06D897E898F8979
:10452000988D20E03FEF4FE757E40E94443418167F
:104530004CF5698D7A8D8B8D9C8D20E030E040E2CA
:1045400051E40E949E32DC01CB01BC01CD010E94EE
:10455000C830DC01CB019C8B8B8B0FC080E791E0D6
:104560009A8B898B89899A890197F1F79A8B898B24
:104570008B899C8901979C8B8B8B8B899C8900975D
:1045800069F714C06D897E898F89988D0E94C83023
:10459000DC01CB019C8B8B8B8B899C89988B8F87C3
:1045A0008F8598890197F1F7988B8F878AEF6AEF4B
:1045B0000E9459140E94AB1480E090E8A9E0B4E492
:1045C0008B879C87AD87BE876B857C858D859E8517
:1045D00026E636E646E655E40E949E32DC01CB0133
:1045E0008F839887A987BA876F81788589859A850F
:1045F00020E030E040E85FE30E94A43488232CF4FC
:1046000081E090E09E838D833FC06F8178858985AE
:104610009A8520E03FEF4FE757E40E944434181694
:104620004CF56B857C858D859E8520E030E040E2F1
:1046300051E40E949E32DC01CB01BC01CD010E94FD
:10464000C830DC01CB019E838D830FC080E791E0F1
:104650009C838B838B819C810197F1F79C838B8357
:104660008D819E8101979E838D838D819E81009790
:1046700069F714C06F81788589859A850E94C83052
:10468000DC01CB019E838D838D819E819A838983FA
:1046900089819A810197F1F79A83898381E090E07B
:1046A00061E070E00E94CE14C851DF4F0FB6F8945D
:1046B000DEBF0FBECDBFCF91DF911F910F91089547
:1046C000DF93CF93CDB7DEB76C970FB6F894DEBF0C
:1046D0000FBECDBF0E948D1483E00E940114809311
:1046E0000E0382E00E94011480930F0381E00E9478
:1046F00001148093100381E061E043E00E943B14C9
:1047000081E065E042E00E943B1481E069E041E025
:104710000E943B1480910E03893168F480910F034D
:10472000893148F480911003893128F486E96AEFD1
:104730000E945914D1CF80910E03893168F4809181
:104740000F03893148F4809110038A3128F08AEFF1
:1047500068EC0E945914C0CF80910E03893168F42F
:1047600080910F038A3148F080911003893128F439
:104770008AEF6AEF0E945914AFCF80910E038931FE
:1047800068F480910F038A3148F0809110038A31D8
:1047900028F08CED68EC0E9459149ECF80910E0396
:1047A0008A3168F080910F03893148F480911003B9
:1047B000893128F488EC6AEF0E9459148DCF8091DA
:1047C0000E038A3168F080910F03893148F480919B
:1047D00010038A3128F08AEF6AEF0E9459147CCFC7
:1047E00080910E038A3168F080910F038A3148F07E
:1047F00080911003893128F488EC6CED0E945914E3
:104800006BCF80910E038A3108F466CF80910F033D
:104810008A3108F461CF809110038A3108F45CCFAB
:1048200080E060E00E9459140E94A11480E090E0B2
:10483000AAEFB3E4898F9A8FAB8FBC8F698D7A8D85
:104840008B8D9C8D26E636E646E655E40E949E3228
:10485000DC01CB018D8B9E8BAF8BB88F6D897E89F0
:104860008F89988D20E030E040E85FE30E94A43417
:1048700088232CF481E090E09C8B8B8B3FC06D896A
:104880007E898F89988D20E03FEF4FE757E40E94A3
:10489000443418164CF5698D7A8D8B8D9C8D20E0F3
:1048A00030E040E251E40E949E32DC01CB01BC01C9
:1048B000CD010E94C830DC01CB019C8B8B8B0FC0DB
:1048C00080E791E09A8B898B89899A890197F1F722
:1048D0009A8B898B8B899C8901979C8B8B8B8B897D
:1048E0009C89009769F714C06D897E898F89988D9E
:1048F0000E94C830DC01CB019C8B8B8B8B899C89FF
:10490000988B8F878F8598890197F1F7988B8F8780
:10491000809111038F5F8093110390911103809117
:104920000402981771F481E08093140380E060E042
:104930000E94591410921103809112038F5F80938B
:104940001203E6ECF0E081E3808380E090E0AAEFE0
:10495000B3E48B879C87AD87BE876B857C858D850F
:104960009E8526E636E646E655E40E949E32DC0148
:10497000CB018F839887A987BA876F8178858985CE
:104980009A8520E030E040E85FE30E94A434882369
:104990002CF481E090E09E838D833FC06F81788509
:1049A00089859A8520E03FEF4FE757E40E94443421
:1049B00018164CF56B857C858D859E8520E030E052
:1049C00040E251E40E949E32DC01CB01BC01CD01EA
:1049D0000E94C830DC01CB019E838D830FC080E72D
:1049E00091E09C838B838B819C810197F1F79C8361
:1049F0008B838D819E8101979E838D838D819E8186
:104A0000009769F714C06F81788589859A850E941F
:104A1000C830DC01CB019E838D838D819E819A837A
:104A2000898389819A810197F1F79A8389836C96AA
:104A30000FB6F894DEBF0FBECDBFCF91DF910895C2
:104A4000DF93CF93CDB7DEB7A7E2B0E0E7E2F0E0C7
:104A5000808188608C93A8E2B0E0E8E2F0E0808199
:104A6000877F8C93CF91DF910895DF93CF93CDB75C
:104A7000DEB7A1E2B0E0E1E2F0E080818F608C93EC
:104A8000A2E2B0E0E2E2F0E08081807F8C93AAE0D5
:104A9000B1E0EAE0F1E0808188618C93ABE0B1E0C5
:104AA000EBE0F1E0808188618C93CF91DF910895F4
:104AB000DF93CF93CDB7DEB70E9435250E94202526
:104AC000CF91DF910895DF93CF930F92CDB7DEB7EB
:104AD0001982E6E2F0E08081898389818860898398
:104AE000E8E2F0E0898180830F90CF91DF91089513
:104AF000DF93CF930F92CDB7DEB71982E6E2F0E0F5
:104B0000808189838981877F8983E8E2F0E08981D8
:104B100080830F90CF91DF910895DF93CF93CDB72E
:104B2000DEB7E1ECF0E01082E0ECF0E01082E2ECC5
:104B3000F0E086E08083E4ECF0E08FE58083E5EC54
:104B4000F0E01082E1ECF0E088E98083CF91DF9122
:104B500008951F920F920FB60F9200905B000F9274
:104B600011240F931F932F933F934F935F936F9352
:104B70007F938F939F93AF93BF93EF93FF93DF93B5
:104B8000CF93CDB7DEB7C45BD040DEBFCDBFE6EC80
:104B9000F0E0808180933A0380912403813081F496
:104BA00080913A03882F90E0C097909320038093E0
:104BB0001F0381E080932503109224030C9484301A
:104BC00080912503813091F580913A03882F90E000
:104BD000C097909322038093210310922503209184
:104BE0001F033091200381E061E0A90123E030E060
:104BF0000E947D12209121033091220382E061E026
:104C0000A90123E030E00E947D1280911F03909162
:104C100020032091210330912203B9010E94BC1688
:104C2000E6ECF0E081E380830C94843080911703FC
:104C3000909118038130910509F07AC08091190391
:104C400090911A03009779F480913A03282F30E06D
:104C500080911B0390911C03820F931FC097909328
:104C60001C0380931B038091190390911A038130D8
:104C70009105D9F480913A03882F90E09C01220F8E
:104C8000331FC901880F991F880F991F820F931F27
:104C90009C0180911B0390911C03820F931F805EE7
:104CA000914090931C0380931B0380911903909172
:104CB0001A038230910561F580913A03282F30E084
:104CC00084E690E0AC01249FC001259F900D349FA5
:104CD000900D11249C0180911B0390911C03820F65
:104CE000931F805C924190931C0380931B0320913F
:104CF0001B0330911C0381E061E0A90123E030E057
:104D00000E947D1282E090E0909318038093170335
:104D10008091190390911A03019623E030E0B901C4
:104D20000E94963790931A03809319030C94843051
:104D300080911703909118038230910509F08EC37A
:104D40008091190390911A03009779F480913A03A6
:104D5000282F30E080911D0390911E03820F931F36
:104D6000C09790931E0380931D0380911903909127
:104D70001A0381309105D9F480913A03882F90E08D
:104D80009C01220F331FC901880F991F880F991F9B
:104D9000820F931F9C0180911D0390911E03820F2F
:104DA000931F805E914090931E0380931D0380911A
:104DB000190390911A038230910509F040C3809144
:104DC0003A03282F30E084E690E0FC012E9FC001DA
:104DD0002F9F900D3E9F900D11249C0180911D03EB
:104DE00090911E03820F931F805C924190931E034B
:104DF00080931D0320911D0330911E0382E061E02A
:104E0000A90123E030E00E947D1280910002909180
:104E10000102C355DF4F99838883CD5AD040C355D3
:104E2000DF4F48815981CD5AD04055236CF4C3558A
:104E3000DF4F88819981CD5AD0400196C355DF4F0D
:104E400099838883CD5AD040C355DF4F888199819B
:104E5000CD5AD04095958795855B9F4F9C01809159
:104E60001B0390911C032817390708F419C280917D
:104E7000000290910102C155DF4F99838883CF5A78
:104E8000D040C155DF4FE881F981CF5AD040FF2390
:104E900074F4C155DF4F48815981CF5AD0404F5FDC
:104EA0005F4FC155DF4F59834883CF5AD040C1551A
:104EB000DF4F88819981CF5AD040959587958B5443
:104EC00090409C0180911B0390911C0382179307D3
:104ED00008F4E6C18091020290910302CF54DF4FA3
:104EE00099838883C15BD040CF54DF4F88819981FB
:104EF000C15BD04099236CF4CF54DF4FE881F98136
:104F0000C15BD0403196CF54DF4FF983E883C15B5A
:104F1000D040CF54DF4F88819981C15BD0409595B7
:104F20008795855B9F4F9C0180911D0390911E0387
:104F30002817390708F4B4C1809102029091030246
:104F4000CD54DF4F99838883C35BD040CD54DF4F6E
:104F500048815981C35BD04055236CF4CD54DF4F59
:104F600088819981C35BD0400196CD54DF4F9983EE
:104F70008883C35BD040CD54DF4F88819981C35B68
:104F8000D040959587958B5490409C0180911D034E
:104F900090911E038217930708F482C1E6ECF0E0BB
:104FA00082E38083FE01EB55FF4F80E090E0AAEFA3
:104FB000B4E480839183A283B3838E010F551F4F86
:104FC000FE01EB55FF4F608171818281938126E65E
:104FD00036E646E655E40E949E32DC01CB01F8013C
:104FE00080839183A283B383FE01EF55FF4F6081DD
:104FF00071818281938120E030E040E85FE30E948C
:10500000A434882344F4FE01E156FF4F81E090E090
:105010009183808364C0FE01EF55FF4F60817181F1
:105020008281938120E03FEF4FE757E40E944434B0
:1050300018160CF043C0FE01EB55FF4F60817181E3
:105040008281938120E030E040E251E40E949E3270
:10505000DC01CB018E0101561F4FBC01CD010E9426
:10506000C830DC01CB01F801918380831FC0FE01B1
:10507000E356FF4F80E791E091838083FE01E35682
:10508000FF4F808191810197F1F7FE01E356FF4FB9
:1050900091838083DE01A156BF4FFE01E156FF4F91
:1050A00080819181019711969C938E93FE01E15628
:1050B000FF4F808191810097D1F627C08E01015664
:1050C0001F4FFE01EF55FF4F6081718182819381F7
:1050D0000E94C830DC01CB01F80191838083DE019E
:1050E000A556BF4FFE01E156FF4F808191818D9300
:1050F0009C93FE01E556FF4F808191810197F1F766
:10510000FE01E556FF4F918380830E946325FE01D7
:10511000E956FF4F80E090E0AAEFB4E480839183EA
:10512000A283B3838E010D561F4FFE01E956FF4F38
:10513000608171818281938126E636E646E655E4F8
:105140000E949E32DC01CB01F80180839183A2830F
:10515000B383FE01ED56FF4F60817181828193819F
:1051600020E030E040E85FE30E94A434882344F468
:10517000FE01EF56FF4F81E090E09183808364C091
:10518000FE01ED56FF4F608171818281938120E0A5
:105190003FEF4FE757E40E94443418160CF043C029
:1051A000FE01E956FF4F608171818281938120E089
:1051B00030E040E251E40E949E32DC01CB018E01DE
:1051C0000F561F4FBC01CD010E94C830DC01CB013E
:1051D000F801918380831FC0FE01E157FF4F80E7F4
:1051E00091E091838083FE01E157FF4F808191819F
:1051F0000197F1F7FE01E157FF4F91838083DE01B4
:10520000AF56BF4FFE01EF56FF4F8081918101974E
:1052100011969C938E93FE01EF56FF4F80819181F2
:105220000097D1F627C08E010F561F4FFE01ED5695
:10523000FF4F60817181828193810E94C830DC01BF
:10524000CB01F80191838083DE01A357BF4FFE019C
:10525000EF56FF4F808191818D939C93FE01E35720
:10526000FF4F808191810197F1F7FE01E357FF4FD6
:10527000918380830E9478250E94420909C0809111
:105280003503855080933503809135030E94790161
:1052900080913503863098F78CE30E94C701C3C024
:1052A00080911B0390911C0320911D0330911E03DC
:1052B000B9010E94EB06FE01E757FF4F80E090E046
:1052C000AAEFB4E480839183A283B3838E010B574A
:1052D0001F4FFE01E757FF4F6081718182819381EB
:1052E00026E636E646E655E40E949E32DC01CB0116
:1052F000F80180839183A283B383FE01EB57FF4FB4
:10530000608171818281938120E030E040E85FE339
:105310000E94A434882344F4FE01ED57FF4F81E03E
:1053200090E09183808364C0FE01EB57FF4F608162
:1053300071818281938120E03FEF4FE757E40E9423
:10534000443418160CF043C0FE01E757FF4F60814C
:1053500071818281938120E030E040E251E40E943B
:105360009E32DC01CB018E010D571F4FBC01CD01D8
:105370000E94C830DC01CB01F801918380831FC0FB
:10538000FE01EF57FF4F80E791E091838083FE019C
:10539000EF57FF4F808191810197F1F7FE01EF57A1
:1053A000FF4F91838083DE01AD57BF4FFE01ED5764
:1053B000FF4F80819181019711969C938E93FE01FE
:1053C000ED57FF4F808191810097D1F628C08E0163
:1053D0000D571F4FFE01EB57FF4F60817181828196
:1053E00093810E94C830DC01CB01F8019183808356
:1053F000DE01A158BF4FFE01ED57FF4F8081918123
:1054000011969C938E93FE01E158FF4F808191810C
:105410000197F1F7FE01E158FF4F91838083E6EC9D
:10542000F0E081E3808310921C0310921B03109222
:105430001E0310921D0310921803109217038091FF
:10544000190390911A03019623E030E0B9010E94FC
:10545000963790931A038093190356C680913A03A6
:10546000803309F0E1C38091350385508093350383
:1054700080913503853048F0809135030E94790191
:10548000E6ECF0E081E380833FC680913503853010
:1054900008F035C388E780933503809135030E9477
:1054A000790180911403813009F05EC2E6ECF0E0EE
:1054B00084E38083FE01E558FF4F80E090E0AAE797
:1054C000B4E480839183A283B3838E0109581F4F74
:1054D000FE01E558FF4F608171818281938126E64C
:1054E00036E646E655E40E949E32DC01CB01F80127
:1054F00080839183A283B383FE01E958FF4F6081CB
:1055000071818281938120E030E040E85FE30E9476
:10551000A434882344F4FE01EB58FF4F81E090E06F
:105520009183808364C0FE01E958FF4F60817181DF
:105530008281938120E03FEF4FE757E40E9444349B
:1055400018160CF043C0FE01E558FF4F60817181D1
:105550008281938120E030E040E251E40E949E325B
:10556000DC01CB018E010B581F4FBC01CD010E9405
:10557000C830DC01CB01F801918380831FC0FE019C
:10558000ED58FF4F80E791E091838083FE01ED5855
:10559000FF4F808191810197F1F7FE01ED58FF4F98
:1055A00091838083DE01AB58BF4FFE01EB58FF4F64
:1055B00080819181019711969C938E93FE01EB5807
:1055C000FF4F808191810097D1F628C08E010B5842
:1055D0001F4FFE01E958FF4F6081718182819381E5
:1055E0000E94C830DC01CB01F80191838083DE0189
:1055F000AF58BF4FFE01EB58FF4F8081918111964C
:105600009C938E93FE01EF58FF4F8081918101970B
:10561000F1F7FE01EF58FF4F91838083E6ECF0E055
:1056200080911303805D8083FE01E555FF4F118259
:1056300010828CC1FE01E359FF4F80E090E0AAE7A1
:10564000B4E480839183A283B3838E0107591F4FF3
:10565000FE01E359FF4F608171818281938126E6CB
:1056600036E646E655E40E949E32DC01CB01F801A5
:1056700080839183A283B383FE01E759FF4F60814A
:1056800071818281938120E030E040E85FE30E94F5
:10569000A434882344F4FE01E959FF4F81E090E0EF
:1056A0009183808364C0FE01E759FF4F608171815F
:1056B0008281938120E03FEF4FE757E40E9444341A
:1056C00018160CF043C0FE01E359FF4F6081718151
:1056D0008281938120E030E040E251E40E949E32DA
:1056E000DC01CB018E0109591F4FBC01CD010E9485
:1056F000C830DC01CB01F801918380831FC0FE011B
:10570000EB59FF4F80E791E091838083FE01EB59D5
:10571000FF4F808191810197F1F7FE01EB59FF4F17
:1057200091838083DE01A959BF4FFE01E959FF4FE4
:1057300080819181019711969C938E93FE01E95986
:10574000FF4F808191810097D1F627C08E010959C2
:105750001F4FFE01E759FF4F608171818281938164
:105760000E94C830DC01CB01F80191838083DE0107
:10577000AD59BF4FFE01E959FF4F808191818D9353
:105780009C93FE01ED59FF4F808191810197F1F7C4
:10579000FE01ED59FF4F91838083A6ECB0E0FE013E
:1057A000E555FF4F80819181FC01EA5DFC4F8081CE
:1057B000805D8C93FE01E15AFF4F80E090E0AAE704
:1057C000B4E480839183A283B3838E01055A1F4F73
:1057D000FE01E15AFF4F608171818281938126E64B
:1057E00036E646E655E40E949E32DC01CB01F80124
:1057F00080839183A283B383FE01E55AFF4F6081CA
:1058000071818281938120E030E040E85FE30E9473
:10581000A434882344F4FE01E75AFF4F81E090E06E
:105820009183808364C0FE01E55AFF4F60817181DE
:105830008281938120E03FEF4FE757E40E94443498
:1058400018160CF043C0FE01E15AFF4F60817181D0
:105850008281938120E030E040E251E40E949E3258
:10586000DC01CB018E01075A1F4FBC01CD010E9404
:10587000C830DC01CB01F801918380831FC0FE0199
:10588000E95AFF4F80E791E091838083FE01E95A56
:10589000FF4F808191810197F1F7FE01E95AFF4F97
:1058A00091838083DE01A75ABF4FFE01E75AFF4F65
:1058B00080819181019711969C938E93FE01E75A06
:1058C000FF4F808191810097D1F627C08E01075A42
:1058D0001F4FFE01E55AFF4F6081718182819381E4
:1058E0000E94C830DC01CB01F80191838083DE0186
:1058F000AB5ABF4FFE01E75AFF4F808191818D93D4
:105900009C93FE01EB5AFF4F808191810197F1F743
:10591000FE01EB5AFF4F91838083A6ECB0E0FE01BD
:10592000E555FF4F80819181FC01EF5BFC4F808149
:10593000805D8C93DE01A555BF4FFE01E555FF4FFD
:1059400080819181019611969C938E93809113038F
:10595000282F30E0FE01E555FF4F808191818217AD
:1059600093070CF467CED0C380912303813009F0F4
:10597000C1C0E2E2F0E086E080838AEF6AEF0E9435
:105980005914FE01EF5AFF4F80E090E0A8E4B3E421
:1059900080839183A283B3838E01035B1F4FFE013B
:1059A000EF5AFF4F608171818281938126E636E64E
:1059B00046E655E40E949E32DC01CB01F80180836B
:1059C0009183A283B383FE01E35BFF4F608171810A
:1059D0008281938120E030E040E85FE30E94A434BC
:1059E000882344F4FE01E55BFF4F81E090E0918362
:1059F000808364C0FE01E35BFF4F6081718182811F
:105A0000938120E03FEF4FE757E40E94443418169B
:105A10000CF043C0FE01EF5AFF4F6081718182811B
:105A2000938120E030E040E251E40E949E32DC01AC
:105A3000CB018E01055B1F4FBC01CD010E94C83018
:105A4000DC01CB01F801918380831FC0FE01E75B7D
:105A5000FF4F80E791E091838083FE01E75BFF4F7A
:105A6000808191810197F1F7FE01E75BFF4F918300
:105A70008083DE01A55BBF4FFE01E55BFF4F8081A8
:105A80009181019711969C938E93FE01E55BFF4FE8
:105A9000808191810097D1F627C08E01055B1F4F51
:105AA000FE01E35BFF4F60817181828193810E94DF
:105AB000C830DC01CB01F80191838083DE01A95B52
:105AC000BF4FFE01E55BFF4F808191818D939C93D9
:105AD000FE01E95BFF4F808191810197F1F7FE01A3
