:100000000080001029010000F5000000F70000004A
:10001000F9000000FB000000FD00000000000000EF
:10002000000000000000000000000000FF000000D1
:1000300001010000000000000301000005010000B4
:100040006901000069010000690100006901000008
:1000500069010000192D0000A52E000039300000B4
:10006000F931000069010000D10E00007D1300008D
:1000700041180000690100006901000069010000E9
:1000800069010000690100006901000069010000C8
:1000900069010000690100006901000069010000B8
:1000A00069010000690100006901000069010000A8
:1000B0006901000069010000690100006901000098
:1000C000690100006901000069010000E4690000A5
:1000D0000000001060000000E469000000C007207C
:1000E0000000000060000010C405000000C00720F0
:1000F00000000000FEE7FEE7FEE7FEE7FEE7FEE7A2
:10010000FEE7FEE7FEE710B5002302E01C585C5056
:1001100004339342FAD310BD002302E000221A50A8
:1001200004338B42FAD3704710B50C4C05E02068BD
:100130006168A2680C34FFF7E6FF094B9C42F6D3D6
:1001400004E0206861680834FFF7E6FF054B9C4235
:10015000F7D300F041FB06F01BFBFEE7CC000000EC
:10016000E4000000F4000000FEE700BFFFFFFFFF17
:10017000FFFFFFFFFFFFFFFFFFFFFFFFFFFFFFFF8F
:10018000FFFFFFFFFFFFFFFFFFFFFFFFFFFFFFFF7F
:10019000FFFFFFFFFFFFFFFFFFFFFFFFFFFFFFFF6F
:1001A000FFFFFFFFFFFFFFFFFFFFFFFFFFFFFFFF5F
:1001B000FFFFFFFFFFFFFFFFFFFFFFFFFFFFFFFF4F
:1001C000FFFFFFFFFFFFFFFFFFFFFFFFFFFFFFFF3F
:1001D000FFFFFFFFFFFFFFFFFFFFFFFFFFFFFFFF2F
:1001E000FFFFFFFFFFFFFFFFFFFFFFFFFFFFFFFF1F
:1001F000FFFFFFFFFFFFFFFFFFFFFFFFFFFFFFFF0F
:10020000FFFFFFFFFFFFFFFFFFFFFFFFFFFFFFFFFE
:10021000FFFFFFFFFFFFFFFFFFFFFFFFFFFFFFFFEE
:10022000FFFFFFFFFFFFFFFFFFFFFFFFFFFFFFFFDE
:10023000FFFFFFFFFFFFFFFFFFFFFFFFFFFFFFFFCE
:10024000FFFFFFFFFFFFFFFFFFFFFFFFFFFFFFFFBE
:10025000FFFFFFFFFFFFFFFFFFFFFFFFFFFFFFFFAE
:10026000FFFFFFFFFFFFFFFFFFFFFFFFFFFFFFFF9E
:10027000FFFFFFFFFFFFFFFFFFFFFFFFFFFFFFFF8E
:10028000FFFFFFFFFFFFFFFFFFFFFFFFFFFFFFFF7E
:10029000FFFFFFFFFFFFFFFFFFFFFFFFFFFFFFFF6E
:1002A000FFFFFFFFFFFFFFFFFFFFFFFFFFFFFFFF5E
:1002B000FFFFFFFFFFFFFFFFFFFFFFFFFFFFFFFF4E
:1002C000FFFFFFFFFFFFFFFFFFFFFFFFFFFFFFFF3E
:1002D000FFFFFFFFFFFFFFFFFFFFFFFFFFFFFFFF2E
:1002E000FFFFFFFFFFFFFFFFFFFFFFFFFFFFFFFF1E
:1002F000FFFFFFFFFFFFFFFFFFFFFFFFFFFFFFFF0E
:1003000080B500AF00F04CF84FF002004FF4E1313F
:1003100003F03CF802F0C2F902F00AFB01F0BCFD68
:1003200001F0F0FC4FF0020040F6F87102F040FCE2
:1003300001F034FE01F042FD00F004F801F026FF68
:1003400080BD00BF80B485B000AF4FF00003FB60FC
:100350004FF00003BB604FF000037B604FF00003E1
:10036000BB6014E04FF00003FB6007E07B6803F123
:1003700001037B60FB6803F10103FB60FA684EF642
:100380005F239A42F2D9BB6803F10103BB60BB68EB
:100390006D2BE7D907F11407BD4680BC704700BF3D
:1003A00080B485B000AF4FF00003FB604FF0000356
:1003B000BB604FF000037B604FF00003BB6014E0B4
:1003C0004FF00003FB6007E07B6803F101037B60F3
:1003D000FB6803F10103FB60FA684EF65F239A4263
:1003E000F2D9BB6803F10103BB60BB680A2BE7D9F4
:1003F00007F11407BD4680BC704700BF80B588B0C8
:1004000000AF78604FF004037B774FF00003BB61CF
:100410004FF000037B614FF00003FB774FF00003C8
:10042000BB777B7F052B00F2E4807B7F052B02D01E
:10043000FB7F012B19D1B97F7A6841F25973CDF254
:10044000B713A3FB02034FEA5333DBB203F13003CC
:10045000DAB207F12000431803F8182CBB7F03F130
:100460000103BB774FF00103FB777B7F042B02D0A6
:10047000FB7F012B2AD17A6844F6D353C1F2620381
:10048000A3FB02134FEA93137B61B87F79694CF6A3
:10049000CD43CCF6CC43A3FB01234FEAD302134652
:1004A0004FEA83039B184FEA4303CA1AD3B203F1FE
:1004B0003003DAB207F120010B1803F8182CBB7FC8
:1004C00003F10103BB774FF00103FB777B7F032B25
:1004D00002D0FB7F012B2AD17A6848F21F53C5F264
:1004E000EB13A3FB02034FEA53137B61B87F7969D7
:1004F0004CF6CD43CCF6CC43A3FB01234FEAD30209
:1005000013464FEA83039B184FEA4303CA1AD3B238
:1005100003F13003DAB207F120010B1803F8182CAD
:10052000BB7F03F10103BB774FF00103FB777B7FB8
:10053000022B02D0FB7F012B2AD17A684CF6CD43E7
:10054000CCF6CC43A3FB02034FEAD3037B61B87F15
:1005500079694CF6CD43CCF6CC43A3FB01234FEA9B
:10056000D30213464FEA83039B184FEA4303CA1A88
:10057000D3B203F13003DAB207F120010B1803F80C
:10058000182CBB7F03F10103BB774FF00103FB770E
:100590007B7F012B02D0FB7F012B20D1B87F7968B4
:1005A0004CF6CD43CCF6CC43A3FB01234FEAD30258
:1005B00013464FEA83039B184FEA4303CA1AD3B288
:1005C00003F13003DAB207F120010B1803F8182CFD
:1005D000BB7F03F10103BB774FF00003FB7707F10B
:1005E00008034FF0010019464FF0040203F030F900
:1005F00000E000BF07F12007BD4680BD80B58EB08A
:1006000000AF00F0E9F800F0DBF9FFF779FE4AF2FD
:100610002010C0F2070000F0EFFAFFF793FE4FF052
:1006200000004FF4165102F0B1FE4FF001004FF4FC
:10063000964102F0ABFE4FF001004FF0010101F0D6
:1006400053FF4FF0140046F6C011C0F2000101F054
:10065000DFFD4FF0020002F035F902F0DFF84FF055
:100660000A0002F0C3F902F01FF8FFF76BFE4FF02B
:100670004003BB614FF00003FB614FF000033B847C
:100680004FF02C03FB604FF000033B614FF0000381
:10069000BB824FF024033B604FF000037B604FF0C0
:1006A00000033B814FF001037B637B6B002B32D156
:1006B0004FF064004FF47A7102F0CEF902F024F8A2
:1006C0000346184606F066F803461A4640F26003F1
:1006D000C1F200031A6040F26003C1F200031B681C
:1006E0004FF002004FF001011A464FF0040301F0F1
:1006F000D7FDFFF727FEFFF725FEFFF723FEFFF7E5
:1007000021FEFFF71FFEFFF71DFEFFF71BFE4FF058
:1007100001037B6356E04FF0000000F031FB3863CB
:100720004FF0010000F02CFBF8624FF0020000F0E7
:1007300027FBB8624FF0050000F022FB786207F15A
:1007400018034FF0010019464FF0010203F080F842
:10075000386BFFF753FE07F10C034FF00100194609
:100760004FF0010203F074F8F86AFFF747FE07F153
:100770000C034FF0010019464FF0010203F068F836
:10078000B86AFFF73BFE07F10C034FF00100194672
:100790004FF0010203F05CF8786AFFF72FFE3B464A
:1007A0004FF0010019464FF0010203F051F8FFF736
:1007B000C9FDFFF7C7FDFFF7C5FDFFF7C3FD4FF00C
:1007C00000037B63FFF7BEFDFFF7BCFDFFF7BAFD3B
:1007D000FFF7B8FD69E700BF80B483B000AF4FF00A
:1007E00000037B604FF44043C4F20F034FF020023C
:1007F000C3F8A02100BF4FF44043C4F20F03D3F865
:10080000A03103F04003002BF5D04FF44043C4F275
:100810000F034FF00202C3F804214FF44043C4F227
:100820000F034FF00002C3F8A8214FF44043C4F275
:100830000F034FF00002C3F8AC214FF44043C4F261
:100840000F034FF00102C3F80C214FF44043C4F2F0
:100850000F034FF05902C0F20502C3F884204FF491
:100860004043C4F20F034FF00102C3F880204FF45D
:100870004043C4F20F034FF0AA02C3F88C204FF498
:100880004043C4F20F034FF05502C3F88C204FF4DD
:100890004043C4F20F03D3F80C31022B0BD000BF3E
:1008A0004FF44043C4F20F03D3F8883003F0806361
:1008B000002BF5D00AE04FF000037B6003E07B687B
:1008C00003F101037B607B68642BF8D94FF440434C
:1008D000C4F20F034FF00302C3F880204FF44043EB
:1008E000C4F20F034FF0AA02C3F88C204FF4404328
:1008F000C4F20F034FF05502C3F88C204FF440436D
:10090000C4F20F034FF02302C3F8A4204FF4404376
:10091000C4F20F034FF00102C3F8A0204FF440438C
:10092000C4F20F034FF0AA02C3F8AC204FF44043C7
:10093000C4F20F034FF05502C3F8AC2000BF4FF4D0
:100940004043C4F20F03D3F8A83003F48063002BB4
:10095000F5D04FF44043C4F20F034FF00302C3F845
:10096000A0204FF44043C4F20F034FF0AA02C3F893
:10097000AC204FF44043C4F20F034FF05502C3F8CC
:10098000AC204FF44043C4F20F0348F2DE72C0F2D1
:100990002842C3F8C4204FF44043C4F20F034FF081
:1009A0000002C3F8C8214FF44043C4F20F0343F2DE
:1009B0003A021A6007F10C07BD4680BC704700BFC1
:1009C00080B400AF4FF44043C4F20F03D3F8883033
:1009D0004FEA136303F00303032B40F0B2804FF49C
:1009E0004043C4F20F03D3F80C3103F00303032B8D
:1009F00000F2FD8001A252F823F000BF0D0A0000B2
:100A0000750A0000DF0A00000D0A00004FF44043A1
:100A1000C4F20F03D3F888304FEA43434FEA5343FD
:100A200003F101034FEA43024FF44043C4F20F03C2
:100A3000D3F888304FEA134303F0FF0303F10103B7
:100A4000B2FBF3F24FF41063C0F23D0303FB02F27A
:100A50004FF44043C4F20F03D3F8043103F0FF0313
:100A600003F10103B2FBF3F240F25403C1F20003BD
:100A70001A60BDE04FF44043C4F20F03D3F888304E
:100A80004FEA43434FEA534303F101034FEA430262
:100A90004FF44043C4F20F03D3F888304FEA1343B6
:100AA00003F0FF0303F10103B2FBF3F24FF4D85359
:100AB000C0F2B70303FB02F24FF44043C4F20F034A
:100AC000D3F8043103F0FF0303F10103B2FBF3F2A7
:100AD00040F25403C1F200031A6000BF88E04FF4F3
:100AE0004043C4F20F03D3F888304FEA43434FEA40
:100AF000534303F101034FEA43024FF44043C4F26E
:100B00000F03D3F888304FEA134303F0FF0303F1D8
:100B10000103B2FBF3F34FF4FA4202FB03F24FF48A
:100B20004043C4F20F03D3F8043103F0FF0303F191
:100B30000103B2FBF3F240F25403C1F200031A6066
:100B400056E04FF44043C4F20F03D3F80C3103F0E6
:100B50000303032B4CD801A252F823F06D0B0000C5
:100B6000990B0000C50B00006D0B00004FF44043D3
:100B7000C4F20F03D3F8043103F0FF0303F10102C1
:100B80004FF41063C0F23D03B3FBF2F240F25403A2
:100B9000C1F200031A602BE04FF44043C4F20F038C
:100BA000D3F8043103F0FF0303F101024FF4D853EB
:100BB000C0F2B703B3FBF2F240F25403C1F20003F8
:100BC0001A6015E04FF44043C4F20F03D3F8043128
:100BD00003F0FF0303F101034FF4FA42B2FBF3F217
:100BE00040F25403C1F200031A6000BF00E000BFEE
:100BF000BD4680BC704700BF80B487B000AF78604E
:100C00004FF44043C4F20F034FF44042C4F20F02CA
:100C1000D2F8C42042F48052C3F8C4204FF000033D
:100C20007B610CE040F2F003C1F200037A694FF0FF
:100C3000000143F822107B6903F101037B617B69AA
:100C4000052BEFD94FF44043C4F202034FF4404266
:100C5000C4F20202526822F47C225A604FF44043EC
:100C6000C4F202034FF44042C4F20202526842F45A
:100C7000A8225A604FF44043C4F202034FF44042AA
:100C8000C4F20202526C22F47C225A644FF44043B4
:100C9000C4F202034FF44042C4F20202526C42F426
:100CA00028225A644FF44043C4F202034FF44042F6
:100CB000C4F20202D26842F04042DA604FF440438C
:100CC000C4F202034FF44042C4F20202D26C22F09A
:100CD0004042DA644FF44043C4F202034FF440420E
:100CE000C4F20202D26C42F00042DA644FF4404394
:100CF000C4F20F03D3F8A8314FEA136303F00303E0
:100D0000FB60FB68022B13D0032B1AD0012B08D0F9
:100D100040F25403C1F200031B684FEA93033B61A6
:100D200018E040F25403C1F200031B683B6111E07C
:100D300040F25403C1F200031B684FEA53033B61C6
:100D400008E040F25403C1F200031B684FEAD303EA
:100D50003B6100BF4FF48043C4F2030339697A68F2
:100D6000B1FBF2F202F1FF324FEA022242F400122A
:100D700042F001021A6007F11C07BD4680BC7047B3
:100D800080B485B000AF0346FB71FB79052B02D917
:100D90004FF00003FB714FF48043C4F203034FF4A0
:100DA0008042C4F20302126822F0FF021A604FF47C
:100DB0008043C4F203034FF48042C4F2030212687A
:100DC0001146FA794FF0010000FA02F241EA0202FC
:100DD00042F080721A6000E000BF4FF48043C4F21A
:100DE0000303FA7902F1040253F82230FB60FB6836
:100DF000002BF1DA4FF48043C4F203034FF4804236
:100E0000C4F20302126822F0E0621A60FB6803F089
:100E10008043002B02D04FF0000308E0FB684FEA4C
:100E200013134FEA03534FEA1353BB60BB681846D2
:100E300007F11407BD4680BC704700BF80B483B083
:100E400000AF0346FB714FF46143CEF2000397F904
:100E500007204FEA5212F97901F01F014FF001000B
:100E600000FA01F143F8221007F10C07BD4680BCDF
:100E7000704700BF80B483B000AF03463960FB7198
:100E800097F90730002B10DA4FF46D43CEF20003D0
:100E9000FA7902F00F02A2F104013A68D2B24FEAE5
:100EA000C202D2B25B181A760DE04FF46143CEF263
:100EB000000397F907103A68D2B24FEAC202D2B2E1
:100EC0005B1883F8002307F10C07BD4680BC704710
:100ED00080B483B000AF40F29003C1F200034FF042
:100EE00000021A604FF44043C4F201035B68FB71D7
:100EF000FB79A3F10803502B00F22B8201A252F8D8
:100F000023F000BF491000005313000053130000EA
:100F10005313000053130000531300005313000039
:100F200053130000951000005313000053130000EA
:100F30005313000053130000531300005313000019
:100F400053130000E110000053130000531300007E
:100F500053130000531300005313000053130000F9
:100F60005313000027130000531300005313000015
:100F700053130000531300005313000053130000D9
:100F8000531300004B1100005313000053130000D3
:100F900053130000531300005313000053130000B9
:100FA00053130000DF11000053130000531300001F
:100FB0005313000053130000531300005313000099
:100FC0005313000053130000531300005313000089
:100FD0005313000053130000531300005313000079
:100FE000531300000B1200005313000053130000B2
:100FF0005313000053130000531300005313000059
:101000005313000027130000531300005313000074
:101010005313000053130000531300005313000038
:101020005313000055120000531300005313000027
:101030005313000053130000531300005313000018
:1010400053130000CD12000040F2A803C1F20003C8
:101050004FF000021A604FF44043C4F2010340F223
:10106000A802C1F20002116840F2D412C1F20002DB
:10107000525CD2B29A6001F1010240F2A803C1F2BF
:1010800000031A604FF44043C4F201034FF02802FA
:101090009A616DE140F29C03C1F200034FF000023F
:1010A0001A604FF44043C4F2010340F2A802C1F2B7
:1010B0000002116840F2D412C1F20002525CD2B2B6
:1010C0009A6001F1010240F2A803C1F200031A6024
:1010D0004FF44043C4F201034FF028029A6147E104
:1010E00040F29423C1F200031B68012B0ED14FF490
:1010F0004043C4F201034FF010021A6040F284032F
:10110000C1F200034FF007021A6016E04FF44043AB
:10111000C4F2010340F2A802C1F20002116840F2D9
:10112000D412C1F20002525CD2B29A6001F1010203
:1011300040F2A803C1F200031A604FF44043C4F226
:1011400001034FF008029A6112E140F29423C1F2C8
:1011500000031B681A4640F2A803C1F200031B6893
:101160009A4217D94FF44043C4F2010340F2A80257
:10117000C1F20002116840F2D412C1F20002525CC6
:10118000D2B29A6001F1010240F2A803C1F2000359
:101190001A601CE040F20813C1F200031B68002B28
:1011A00007D04FF44043C4F201034FF020021A600D
:1011B0000DE04FF44043C4F201034FF010021A60F7
:1011C00040F28403C1F200034FF00C021A604FF4A6
:1011D0004043C4F201034FF008029A61C8E04FF4A3
:1011E0004043C4F201034FF010021A6040F284033E
:1011F000C1F200034FF009021A604FF44043C4F2F9
:1012000001034FF008029A61B2E040F29C03C1F280
:1012100000031B6803F1010240F20813C1F200034E
:101220001B689A4207D24FF44043C4F201034FF0C7
:1012300004021A6006E04FF44043C4F201034FF089
:1012400004029A614FF44043C4F201034FF00802D4
:101250009A618DE040F29C03C1F200031A684FF4DA
:101260004043C4F201039B68D9B240F21413C1F2A7
:101270000003995402F1010240F29C03C1F2000301
:101280001A6040F29C03C1F200031B6803F10102E3
:1012900040F20813C1F200031B689A4207D24FF4D0
:1012A0004043C4F201034FF004021A6006E04FF419
:1012B0004043C4F201034FF004029A614FF44043EB
:1012C000C4F201034FF008029A6151E040F29C031E
:1012D000C1F200031A684FF44043C4F201039B6853
:1012E000D9B240F21413C1F20003995402F1010281
:1012F00040F29C03C1F200031A6040F28403C1F281
:1013000000034FF00C021A604FF44043C4F2010393
:101310004FF010021A604FF44043C4F201034FF043
:1013200008029A6124E04FF44043C4F201034FF0F5
:1013300010021A6040F28403C1F200034FF0080269
:101340001A604FF44043C4F201034FF008029A615F
:101350000EE040F28403C1F200034FF00A021A606B
:101360004FF44043C4F201034FF008029A6100BFFA
:1013700007F10C07BD4680BC704700BF80B483B046
:1013800000AF40F29003C1F200034FF000025A6038
:101390004FF44043C4F205035B68FB71FB79A3F192
:1013A0000803502B00F2378201A252F823F000BF4D
:1013B000F514000017180000171800001718000097
:1013C0001718000017180000171800001718000061
:1013D0004515000017180000171800001718000026
:1013E0001718000017180000171800001718000041
:1013F00095150000171800001718000017180000B6
:101400001718000017180000171800001718000020
:10141000EB1700001718000017180000171800003D
:101420001718000017180000171800001718000000
:101430000316000017180000171800001718000006
:1014400017180000171800001718000017180000E0
:101450009B1600001718000017180000171800004E
:1014600017180000171800001718000017180000C0
:1014700017180000171800001718000017180000B0
:1014800017180000171800001718000017180000A0
:10149000C7160000171800001718000017180000E2
:1014A0001718000017180000171800001718000080
:1014B000EB1700001718000017180000171800009D
:1014C0001718000017180000171800001718000060
:1014D0001117000017180000171800001718000057
:1014E0001718000017180000171800001718000040
:1014F0008D17000040F2AC03C1F200034FF0000270
:101500001A604FF44043C4F2050340F2AC02C1F24A
:101510000002116840F2D412C1F20002521892F88F
:101520004020D2B29A6001F1010240F2AC03C1F254
:1015300000031A604FF44043C4F205034FF0280241
:101540009A6177E140F2A003C1F200034FF000027C
:101550001A604FF44043C4F2050340F2AC02C1F2FA
:101560000002116840F2D412C1F20002521892F83F
:101570004020D2B29A6001F1010240F2AC03C1F204
:1015800000031A604FF44043C4F205034FF02802F1
:101590009A614FE140F29423C1F200035B68012B92
:1015A0000ED14FF44043C4F205034FF010021A600D
:1015B00040F28403C1F200034FF007025A6018E0C2
:1015C0004FF44043C4F2050340F2AC02C1F2000202
:1015D000116840F2D412C1F20002521892F8402071
:1015E000D2B29A6001F1010240F2AC03C1F20003F1
:1015F0001A604FF44043C4F205034FF008029A61A9
:1016000018E140F29423C1F200035B681A4640F2ED
:10161000AC03C1F200031B689A4219D94FF440434E
:10162000C4F2050340F2AC02C1F20002116840F2BC
:10163000D412C1F20002521892F84020D2B29A603D
:1016400001F1010240F2AC03C1F200031A601CE098
:1016500040F20813C1F200035B68002B07D04FF47F
:101660004043C4F205034FF020021A600DE04FF42E
:101670004043C4F205034FF010021A6040F28403A5
:10168000C1F200034FF00C025A604FF44043C4F221
:1016900005034FF008029A61CCE04FF44043C4F2D6
:1016A00005034FF010021A6040F28403C1F20003F8
:1016B0004FF009025A604FF44043C4F205034FF063
:1016C00008029A61B6E040F2A003C1F200031B6871
:1016D00003F1010240F20813C1F200035B689A4271
:1016E00007D24FF44043C4F205034FF004021A60DE
:1016F00006E04FF44043C4F205034FF004029A6140
:101700004FF44043C4F205034FF008029A6191E0A0
:1017100040F2A003C1F200031A684FF44043C4F240
:1017200005039B68D9B240F21413C1F200039B1861
:1017300083F8401002F1010240F2A003C1F200035D
:101740001A6040F2A003C1F200031B6803F101021A
:1017500040F20813C1F200035B689A4207D24FF4CB
:101760004043C4F205034FF004021A6006E04FF450
:101770004043C4F205034FF004029A614FF4404322
:10178000C4F205034FF008029A6153E040F2A0034F
:10179000C1F200031A684FF44043C4F205039B688A
:1017A000D9B240F21413C1F200039B1883F8401021
:1017B00002F1010240F2A003C1F200031A6040F2FC
:1017C0008403C1F200034FF00C025A604FF440430F
:1017D000C4F205034FF010021A604FF44043C4F204
:1017E00005034FF008029A6124E04FF44043C4F22D
:1017F00005034FF010021A6040F28403C1F20003A7
:101800004FF008025A604FF44043C4F205034FF012
:1018100008029A610EE040F28403C1F200034FF027
:101820000A025A604FF44043C4F205034FF0080225
:101830009A6100BF07F10C07BD4680BC704700BF2E
:1018400080B483B000AF40F29003C1F200034FF0C8
:1018500000029A604FF00003C4F20A035B68FB7158
:10186000FB79A3F10803502B00F2378201A252F852
:1018700023F000BFB9190000DB1C0000DB1C0000D6
:10188000DB1C0000DB1C0000DB1C0000DB1C00007C
:10189000DB1C0000091A0000DB1C0000DB1C000040
:1018A000DB1C0000DB1C0000DB1C0000DB1C00005C
:1018B000DB1C0000591A0000DB1C0000DB1C0000D0
:1018C000DB1C0000DB1C0000DB1C0000DB1C00003C
:1018D000DB1C0000AF1C0000DB1C0000DB1C000058
:1018E000DB1C0000DB1C0000DB1C0000DB1C00001C
:1018F000DB1C0000C71A0000DB1C0000DB1C000022
:10190000DB1C0000DB1C0000DB1C0000DB1C0000FB
:10191000DB1C00005F1B0000DB1C0000DB1C000068
:10192000DB1C0000DB1C0000DB1C0000DB1C0000DB
:10193000DB1C0000DB1C0000DB1C0000DB1C0000CB
:10194000DB1C0000DB1C0000DB1C0000DB1C0000BB
:10195000DB1C00008B1B0000DB1C0000DB1C0000FC
:10196000DB1C0000DB1C0000DB1C0000DB1C00009B
:10197000DB1C0000AF1C0000DB1C0000DB1C0000B7
:10198000DB1C0000DB1C0000DB1C0000DB1C00007B
:10199000DB1C0000D51B0000DB1C0000DB1C000072
:1019A000DB1C0000DB1C0000DB1C0000DB1C00005B
:1019B000DB1C0000511C000040F2B003C1F2000328
:1019C0004FF000021A604FF00003C4F20A0340F225
:1019D000B002C1F20002116840F2D412C1F200025A
:1019E000521892F88020D2B29A6001F1010240F2BE
:1019F000B003C1F200031A604FF00003C4F20A03FF
:101A00004FF028029A6177E140F2A403C1F200038B
:101A10004FF000021A604FF00003C4F20A0340F2D4
:101A2000B002C1F20002116840F2D412C1F2000209
:101A3000521892F88020D2B29A6001F1010240F26D
:101A4000B003C1F200031A604FF00003C4F20A03AE
:101A50004FF028029A614FE140F29423C1F2000353
:101A60009B68012B0ED14FF00003C4F20A034FF024
:101A700010021A6040F28403C1F200034FF0070223
:101A80009A6018E04FF00003C4F20A0340F2B0027B
:101A9000C1F20002116840F2D412C1F200025218E1
:101AA00092F88020D2B29A6001F1010240F2B003B4
:101AB000C1F200031A604FF00003C4F20A034FF0B2
:101AC00008029A6118E140F29423C1F200039B6876
:101AD0001A4640F2B003C1F200031B689A4219D9BA
:101AE0004FF00003C4F20A0340F2B002C1F2000258
:101AF000116840F2D412C1F20002521892F880200C
:101B0000D2B29A6001F1010240F2B003C1F20003C7
:101B10001A601CE040F20813C1F200039B68002B1E
:101B200007D04FF00003C4F20A034FF020021A60FE
:101B30000DE04FF00003C4F20A034FF010021A60E8
:101B400040F28403C1F200034FF00C029A604FF0A0
:101B50000003C4F20A034FF008029A61CCE04FF090
:101B60000003C4F20A034FF010021A6040F284032B
:101B7000C1F200034FF009029A604FF00003C4F273
:101B80000A034FF008029A61B6E040F2A403C1F2E2
:101B900000031B6803F1010240F20813C1F20003C5
:101BA0009B689A4207D24FF00003C4F20A034FF039
:101BB00004021A6006E04FF00003C4F20A034FF07B
:101BC00004029A614FF00003C4F20A034FF00802C6
:101BD0009A6191E040F2A403C1F200031A684FF049
:101BE0000003C4F20A039B68D9B240F21413C1F295
:101BF00000039B1883F8801002F1010240F2A40355
:101C0000C1F200031A6040F2A403C1F200031B6892
:101C100003F1010240F20813C1F200039B689A42EB
:101C200007D24FF00003C4F20A034FF004021A6017
:101C300006E04FF00003C4F20A034FF004029A6179
:101C40004FF00003C4F20A034FF008029A6153E018
:101C500040F2A403C1F200031A684FF00003C4F27B
:101C60000A039B68D9B240F21413C1F200039B1817
:101C700083F8801002F1010240F2A403C1F20003D4
:101C80001A6040F28403C1F200034FF00C029A6024
:101C90004FF00003C4F20A034FF010021A604FF035
:101CA0000003C4F20A034FF008029A6124E04FF0E7
:101CB0000003C4F20A034FF010021A6040F28403DA
:101CC000C1F200034FF008029A604FF00003C4F223
:101CD0000A034FF008029A610EE040F28403C1F259
:101CE00000034FF00A029A604FF00003C4F20A03A7
:101CF0004FF008029A6100BF07F10C07BD4680BC97
:101D0000704700BF80B500AF4FF44043C4F20F03EB
:101D10004FF44042C4F20F02D2F8C42042F08002D5
:101D2000C3F8C4204FF44043C4F202034FF44042CE
:101D3000C4F20202526822F070725A604FF44043BB
:101D4000C4F202034FF44042C4F20202526842F06D
:101D5000A0725A604FF44043C4F201034FF06C028A
:101D60009A614FF44043C4F202034FF44042C4F27C
:101D70000202D26F22F00502DA674FF44043C4F248
:101D800001034FF4A8725A614FF44043C4F20103B7
:101D90004FF4A8721A614FF00A004FF00001FFF7EC
:101DA00069F84FF00A00FFF749F84FF44043C4F2D6
:101DB00001034FF040021A6080BD00BF80B500AF44
:101DC0004FF44043C4F20F034FF44042C4F20F02F9
:101DD000D2F8C42042F40022C3F8C4204FF4404398
:101DE000C4F202034FF44042C4F20202526822F4E9
:101DF00070725A604FF44043C4F202034FF4404201
:101E0000C4F20202526842F470725A604FF44043C6
:101E1000C4F202034FF44042C4F20202526C22F4B4
:101E200070725A644FF44043C4F202034FF44042CC
:101E3000C4F20202526C42F420725A644FF44043DE
:101E4000C4F202034FF44042C4F20202926E42F422
:101E5000C0129A664FF44043C4F205034FF06C027F
:101E60009A614FF44043C4F205034FF4A8725A61DB
:101E70004FF44043C4F205034FF4A8721A614FF0C7
:101E80000B00FEF7DBFF4FF44043C4F205034FF0B5
:101E900040021A6080BD00BF80B483B000AF4FF035
:101EA00000037B604FF44043C2F209034FF4404209
:101EB000C2F20902126922F0C0521A614FF4404383
:101EC000C2F209034FF44042C2F20902126822F042
:101ED000C0521A604FF44043C2F209034FF440422B
:101EE000C2F20902126842F080521A6048E04FF0D4
:101EF00000037B6003E07B6803F101037B607A6889
:101F000042F20F739A42F6D94FF44043C2F20903EA
:101F10004FF080529A614FF000037B6003E07B68D2
:101F200003F101037B607A6840F2E7339A42F6D905
:101F30004FF44043C2F209034FF08052DA614FF090
:101F400000037B6003E07B6803F101037B607A6838
:101F500040F2E7339A42F6D94FF44043C2F2090304
:101F60004FF080529A614FF000037B6003E07B6882
:101F700003F101037B607A6842F20F739A42F6D94B
:101F80004FF44043C2F209035B6903F00063002B86
:101F9000ADD007F10C07BD4680BC704780B483B05C
:101FA00000AF4FF000037B604FF44043C2F20903DF
:101FB0004FF44042C2F20902126922F4C0121A61BF
:101FC0004FF44043C2F209034FF44042C2F2090207
:101FD000126822F4C0121A604FF44043C2F209039F
:101FE0004FF44042C2F20902126842F480121A60B1
:101FF00048E04FF000037B6003E07B6803F10103DE
:102000007B607A6842F20F739A42F6D94FF44043EC
:10201000C2F209034FF480129A614FF000037B6013
:1020200003E07B6803F101037B607A6840F2E733E9
:102030009A42F6D94FF44043C2F209034FF480129A
:10204000DA614FF000037B6003E07B6803F101037A
:102050007B607A6840F2E7339A42F6D94FF4404306
:10206000C2F209034FF480129A614FF000037B60C3
:1020700003E07B6803F101037B607A6842F20F732F
:102080009A42F6D94FF44043C2F209035B6903F464
:102090000023002BADD007F10C07BD4680BC704774
:1020A00080B483B000AF786046F6D813C0F2000366
:1020B0007A6853F822304FF020021A6040F284030D
:1020C000C1F200037A684FF0060143F8221027E0BE
:1020D00040F29003C1F200037A6853F822301A46A6
:1020E0004FF6FE73C0F2FF039A4209D940F284030F
:1020F000C1F200037A684FF00B0143F8221018E098
:1021000040F29003C1F200037A6853F8223003F1E1
:10211000010140F29003C1F200037A6843F82210F3
:1021200040F28403C1F200037A6853F82230062B90
:10213000CED046F6D813C0F200037A6853F82230A6
:102140004FF020029A6140F28403C1F200037A68E2
:1021500053F82230184607F10C07BD4680BC704783
:1021600080B483B000AF4FF000037B604FF00003FA
:102170007B6003E07B6803F101037B607B68632B7A
:10218000F8D907F10C07BD4680BC704780B500AF99
:1021900000F022FAFFF7E4FF4FF0010000F0E2F94F
:1021A000FFF7DEFF4FF0040000F004F8FFF7D8FF60
:1021B00080BD00BF80B584B000AF0346FB7140F224
:1021C0009423C1F200034FF002025A6040F2081358
:1021D000C1F200034FF000025A6040F2D413C1F282
:1021E00000034FF0C60283F8402040F2D413C1F23E
:1021F0000003FA7983F841204FF00100FFF750FF08
:10220000F860FB68184607F11007BD4680BD00BFA7
:1022100080B584B000AF03463960FB714FF0000316
:10222000FB60FB7903F101031A4640F29423C1F2EB
:1022300000035A6040F20813C1F200034FF000029D
:102240005A6040F2D413C1F200034FF0C60283F883
:1022500040204FF00003FB6013E0FB6803F1010135
:102260003B681A7840F2D413C1F200035B1883F87C
:1022700040203B6803F101033B60FB6803F101036D
:10228000FB60FA79FB689A42E7D84FF00100FFF74C
:1022900007FFB860BB68184607F11007BD4680BD50
:1022A00080B58AB000AFBA600246FA730A46BA73C4
:1022B000FB714FF000037B624FF00003FB614FF0B6
:1022C000000387F823304FF0000387F82230FA7BB1
:1022D000BB7B1046194600F007F9FB79052B01D9A5
:1022E0007B6AFCE0FB79052B03D097F82330012BA8
:1022F0001DD197F82210BA6841F25973CDF2B71385
:10230000A3FB02034FEA5333DBB203F13003DAB22B
:1023100007F12800431803F8182C97F8223003F12E
:10232000010387F822304FF0010387F82330FB794F
:10233000042B03D097F82330012B2ED1BA6844F632
:10234000D353C1F26203A3FB02134FEA9313FB6161
:1023500097F82200F9694CF6CD43CCF6CC43A3FBA9
:1023600001234FEAD30213464FEA83039B184FEA37
:102370004303CA1AD3B203F13003DAB207F12801DA
:102380000B1803F8182C97F8223003F1010387F893
:1023900022304FF0010387F82330FB79032B03D061
:1023A00097F82330012B2ED1BA6848F21F53C5F29B
:1023B000EB13A3FB02034FEA5313FB6197F82200D0
:1023C000F9694CF6CD43CCF6CC43A3FB01234FEA8D
:1023D000D30213464FEA83039B184FEA4303CA1AFA
:1023E000D3B203F13003DAB207F128010B1803F876
:1023F000182C97F8223003F1010387F822304FF0B0
:10240000010387F82330FB79022B03D097F82330A0
:10241000012B2ED1BA684CF6CD43CCF6CC43A3FBAE
:1024200002034FEAD303FB6197F82200F9694CF6E7
:10243000CD43CCF6CC43A3FB01234FEAD302134692
:102440004FEA83039B184FEA4303CA1AD3B203F13E
:102450003003DAB207F128010B1803F8182C97F8AB
:10246000223003F1010387F822304FF0010387F88F
:102470002330FB79012B03D097F82330012B20D197
:1024800097F82200B9684CF6CD43CCF6CC43A3FBB9
:1024900001234FEAD30213464FEA83039B184FEA06
:1024A0004303CA1AD3B203F13003DAB207F12801A9
:1024B0000B1803F8182C97F8223003F1010387F862
:1024C0002230FA7907F1100310461946FFF7A0FEF3
:1024D00003460C2B02D14FF001037B627B6A184646
:1024E00007F12807BD4680BD80B584B000AF024625
:1024F0000B46FA71BB7140F29423C1F200034FF016
:1025000004025A6040F20813C1F200034FF00002C7
:102510005A6040F2D413C1F200034FF0C60283F8B0
:10252000402040F2D413C1F200034FF0030283F8BD
:10253000412040F2D413C1F20003FA7983F842201B
:1025400040F2D413C1F20003BA7983F843204FF06C
:102550000100FFF7A5FDF860FB68184607F11007BA
:10256000BD4680BD80B584B000AF0346FB7140F22C
:102570009423C1F200034FF002025A6040F20813A4
:10258000C1F200034FF000025A6040F2D413C1F2CE
:1025900000034FF0C60283F84020FB79012B08D1DD
:1025A00040F2D413C1F200034FF0130283F841202C
:1025B00007E040F2D413C1F200034FF0140283F895
:1025C00041204FF00100FFF76BFDF860FB681846F3
:1025D00007F11007BD4680BD80B582B000AF40F264
:1025E0009423C1F200034FF002025A6040F2081334
:1025F000C1F200034FF000025A6040F2D413C1F25E
:1026000000034FF0C60283F8402040F2D413C1F219
:1026100000034FF00C0283F841204FF00100FFF758
:102620003FFD78607B68184607F10807BD4680BD0E
:1026300080B487B000AF78604FF000037B614FF04B
:1026400000033B614FF00003FB604FF000033B6170
:1026500014E04FF000037B6107E0FB6803F1010326
:10266000FB607B6903F101037B617A6940F2A2237D
:102670009A42F2D93B6903F101033B617A68134640
:102680004FEA83039B184FEA43039A183B699A4227
:10269000DFD807F11C07BD4680BC704780B500AF8E
:1026A00000F0E6F880BD00BF80B500AF40F2C04347
:1026B000C1F200034FF04E021A7040F2C043C1F263
:1026C00000034FF045025A7040F2C043C1F20003CC
:1026D0004FF058029A7040F2C043C1F200034FF02D
:1026E0004402DA7040F2C043C1F200034FF000022E
:1026F0001A714FF0020040F2C041C1F200014FF0E8
:10270000050201F0A5F880BD80B582B000AF4FF0A2
:1027100000037B6040F2AC23C1F200034FF00002E3
:102720001A7040F2AC23C1F200034FF000025A705D
:1027300040F2AC23C1F200034FF000029A7040F265
:10274000AC23C1F200034FF00002DA7040F2DD0367
:10275000C1F200034FF004021A7040F2C043C1F20C
:1027600000034FF04E021A7040F2C043C1F2000362
:102770004FF045025A7040F2C043C1F200034FF0DF
:1027800058029A7040F2C043C1F200034FF0240295
:10279000DA704FF0020040F2C041C1F200014FF088
:1027A000040201F055F840F2DD03C1F200031B788A
:1027B000DBB21846FFF73CFF40F2AC23C1F2000346
:1027C0001B78DBB24FEA03637B6040F2AC23C1F2BB
:1027D00000035B78DBB24FEA03437A6842EA030303
:1027E0007B6040F2AC23C1F200039B78DBB24FEA7E
:1027F00003237A6842EA03037B6040F2AC23C1F210
:102800000003DB78DBB27A6842EA03037B607B6813
:10281000184607F10807BD4680BD00BF80B500AF70
:1028200040F2C043C1F200034FF04E021A7040F272
:10283000C043C1F200034FF045025A7040F2C0435A
:10284000C1F200034FF058029A7040F2C043C1F247
:1028500000034FF03502DA704FF0020040F2C04141
:10286000C1F200014FF0040200F0F2FF80BD00BF92
:1028700080B500AF40F2C043C1F200034FF04E02FA
:102880001A7040F2C043C1F200034FF045025A7083
:1028900040F2C043C1F200034FF058029A7040F278
:1028A000C043C1F200034FF03802DA704FF002006B
:1028B00040F2C041C1F200014FF0040200F0C8FF35
:1028C00080BD00BF80B582B000AF0346FB7140F20F
:1028D000C043C1F200034FF04E021A7040F2C043F1
:1028E000C1F200034FF045025A7040F2C043C1F2FA
:1028F00000034FF058029A7040F2C043C1F2000347
:102900004FF03402DA7040F2C043C1F20003FA79AA
:102910001A714FF0020040F2C041C1F200014FF0C5
:10292000050200F095FF07F10807BD4680BD00BF16
:1029300080B500AF40F2C043C1F200034FF04E0239
:102940001A7040F2C043C1F200034FF045025A70C2
:1029500040F2C043C1F200034FF058029A7040F2B7
:10296000C043C1F200034FF03202DA7040F2C043BC
:10297000C1F200034FF080021A714FF0020040F2E2
:10298000C041C1F200014FF0050200F061FF40F2CA
:10299000C043C1F200034FF04E021A7040F2C04330
:1029A000C1F200034FF045025A7040F2C043C1F239
:1029B00000034FF058029A7040F2C043C1F2000386
:1029C0004FF03102DA7040F2C043C1F200034FF021
:1029D00080021A714FF0020040F2C041C1F20001C2
:1029E0004FF0050200F034FF80BD00BF80B582B01B
:1029F00000AF0346FB7140F2C043C1F200034FF049
:102A00004E021A7040F2C043C1F200034FF045027B
:102A10005A7040F2C043C1F200034FF058029A705E
:102A200040F2C043C1F200034FF03302DA7040F2CB
:102A3000C043C1F20003FA791A714FF0020040F26C
:102A4000C041C1F200014FF0050200F001FF07F1A3
:102A50000807BD4680BD00BF80B584B000AF034607
:102A60003960FB714FF00003FB60386803F088FFAA
:102A70000346184603F088FF02460B4610461946E7
:102A800049A3D3E9002303F089FE02460B46104612
:102A9000194603F025FF0346BB60B86803F04AFF00
:102AA0000346FB60FB795BB2002B02DA4FF07F0339
:102AB000FB7140F2C043C1F200034FF04E021A70A6
:102AC00040F2C043C1F200034FF045025A7040F299
:102AD000C043C1F200034FF058029A7040F2C04365
:102AE000C1F200034FF04002DA70FB684FEA136353
:102AF000DAB240F2C043C1F200031A71FB684FEA38
:102B00001343DAB240F2C043C1F200035A71FB68CA
:102B10004FEA1323DAB240F2C043C1F200039A71C4
:102B2000FB68DAB240F2C043C1F20003DA7140F24E
:102B3000C043C1F20003FA791A72FB684FEA1363CB
:102B4000DAB240F2C043C1F200035A72FB684FEAA6
:102B50001343DAB240F2C043C1F200039A72FB6839
:102B60004FEA1323DAB240F2C043C1F20003DA7233
:102B7000FB68DAB240F2C043C1F200031A7340F2BC
:102B8000C043C1F20003FA795A734FF0020040F2D9
:102B9000C041C1F200014FF00E0200F059FE07F1F2
:102BA0001007BD4680BD00BF454772F90FE9EB3FF6
:102BB00080B584B000AF02460B46FA71BB8040F28C
:102BC0009423C1F200034FF004021A6040F208138C
:102BD000C1F200034FF000021A6040F2D413C1F2B8
:102BE00000034FF046021A7040F2D413C1F2000302
:102BF000FA795A70BB884FEA13239BB2DAB240F2DB
:102C0000D413C1F200039A70BB88DAB240F2D41335
:102C1000C1F20003DA704FF00000FFF741FAF860EC
:102C2000FB68184607F11007BD4680BD80B483B02D
:102C300000AF0346FB714FF46143CEF2000397F9F6
:102C400007204FEA5212F97901F01F014FF00100FD
:102C500000FA01F143F8221007F10C07BD4680BCD1
:102C6000704700BF80B483B000AF03463960FB718A
:102C700097F90730002B10DA4FF46D43CEF20003C2
:102C8000FA7902F00F02A2F104013A68D2B24FEAD7
:102C9000C202D2B25B181A760DE04FF46143CEF255
:102CA000000397F907103A68D2B24FEAC202D2B2D3
:102CB0005B1883F8002307F10C07BD4680BC704702
:102CC00080B483B000AF0346FB7197F90730002B47
:102CD0000FDA4FF46D43CEF20003FA7902F00F02DF
:102CE000A2F104029B181B7EDBB24FEAD303DBB2D6
:102CF0000CE04FF46143CEF2000397F907209B18D4
:102D000093F80033DBB24FEAD303DBB2184607F186
:102D10000C07BD4680BC704780B582B000AF4FF451
:102D20004043C4F200039B68BB71BB794FEA530375
:102D3000BB71BB7903F00703BB71BB79032B4DD18A
:102D40004FF44043C4F200035B697B717B7903F06D
:102D50009E03002B0CD07A7940F24053C1F200035D
:102D60001A604FF44043C4F200031B68FB7194E007
:102D70007B7903F00103DBB2002B00F08E804FF46F
:102D80004043C4F200031B68DAB240F2FC33C1F2E4
:102D900000031A7040F2FC33C1F200031B78DBB26F
:102DA000184600F0FFFD40F2C403C1F200031B68A7
:102DB00003F1010240F2C403C1F200031A6040F2C1
:102DC000C403C1F200031B68402B66D140F2C40368
:102DD000C1F200034FF000021A605EE0BB79022BE3
:102DE0002ED14FF44043C4F200031B68DAB240F224
:102DF000FC33C1F200031A7040F2FC33C1F200034D
:102E00001B78DBB2184600F0CDFD40F2C403C1F2DE
:102E100000031B6803F1010240F2C403C1F2000386
:102E20001A6040F2C403C1F200031B68402B34D186
:102E300040F2C403C1F200034FF000021A602CE01C
:102E4000BB79062B0CD140F24053C1F200031B6842
:102E500043F4807240F24053C1F200031A601CE058
:102E6000BB79012B19D14FF44043C4F200035B69D5
:102E70007B717B7903F02003002B07D040F25803CD
:102E8000C1F200034FF001021A7006E040F258034D
:102E9000C1F200034FF000021A7007F10807BD46A7
:102EA00080BD00BF80B582B000AF4FF00003C4F218
:102EB00001039B68BB71BB794FEA5303BB71BB79BC
:102EC00003F00703BB71BB79032B4FD14FF0000315
:102ED000C4F201035B697B717B7903F09E03002BD5
:102EE0000CD07A7940F27C43C1F200031A604FF0B3
:102EF0000003C4F201031B68FB7198E07B7903F0C7
:102F00000103DBB2002B00F092804FF00003C4F20B
:102F100001031B68DAB240F2B433C1F200031A7045
:102F200040F2B433C1F200031B78DBB24FF0010072
:102F3000194600F0FBFD40F2C803C1F200031B6814
:102F400003F1010240F2C803C1F200031A6040F22B
:102F5000C803C1F200031B68402B68D140F2C803CC
:102F6000C1F200034FF000021A6060E0BB79022B4F
:102F700030D14FF00003C4F201031B68DAB240F213
:102F8000B433C1F200031A7040F2B433C1F200034B
:102F90001B78DBB24FF00100194600F0C7FD40F28C
:102FA000C803C1F200031B6803F1010240F2C80329
:102FB000C1F200031A6040F2C803C1F200031B68AB
:102FC000402B34D140F2C803C1F200034FF000029D
:102FD0001A602CE0BB79062B0CD140F27C43C1F285
:102FE00000031B6843F4807240F27C43C1F200038B
:102FF0001A601CE0BB79012B19D14FF00003C4F219
:1030000001035B697B717B7903F02003002B07D000
:1030100040F25903C1F200034FF001021A7006E0BA
:1030200040F25903C1F200034FF000021A7007F199
:103030000807BD4680BD00BF80B483B000AF4FF429
:103040000043C4F209039B68BB71BB794FEA530389
:10305000BB71BB7903F00703BB71BB79032B5AD15A
:103060004FF40043C4F209035B697B717B7903F081
:103070009E03002B0CD07A7940F2F433C1F20003A6
:103080001A604FF40043C4F209031B68FB71ADE002
:103090007B7903F00103DBB2002B00F0A78040F244
:1030A000CC03C1F200031A684FF40043C4F20903D1
:1030B0001B68D9B240F2AC23C1F20003995402F16B
:1030C000010240F2CC03C1F200031A6040F2DD03BA
:1030D000C1F200031B78DBB21A4640F2CC03C1F206
:1030E00000031B689A4240F0818040F2CC03C1F299
:1030F00000034FF000021A6040F2DD03C1F200034A
:103100004FF000021A7040F2DC03C1F200034FF0EE
:1031100001021A706AE0BB79022B3AD140F2CC036B
:10312000C1F200031A684FF40043C4F209031B689C
:10313000D9B240F2AC23C1F20003995402F101026A
:1031400040F2CC03C1F200031A6040F2DD03C1F289
:1031500000031B78DBB21A4640F2CC03C1F2000335
:103160001B689A4242D140F2CC03C1F200034FF0F7
:1031700000021A6040F2DD03C1F200034FF00002CA
:103180001A7040F2DC03C1F200034FF001021A7022
:103190002CE0BB79062B0CD140F2F433C1F20003D2
:1031A0001B6843F4807240F2F433C1F200031A60EA
:1031B0001CE0BB79012B19D14FF40043C4F2090381
:1031C0005B697B717B7903F02003002B07D040F211
:1031D0005A03C1F200034FF001021A7006E040F2F8
:1031E0005A03C1F200034FF000021A7007F10C07F6
:1031F000BD4680BC704700BF80B582B000AF4FF4C1
:103200004043C4F209039B68BB71BB794FEA530387
:10321000BB71BB7903F00703BB71BB79032B4FD1A3
:103220004FF44043C4F209035B697B717B7903F07F
:103230009E03002B0CD07A7940F24053C1F2000378
:103240001A604FF44043C4F209031B68FB7198E015
:103250007B7903F00103DBB2002B00F092804FF486
:103260004043C4F209031B68DAB240F28043C1F262
:1032700000031A7040F28043C1F200031B78DBB2F6
:103280004FF00300194600F051FC40F2D003C1F2A8
:1032900000031B6803F1010240F2D003C1F20003F6
:1032A0001A6040F2D003C1F200031B68402B68D1C2
:1032B00040F2D003C1F200034FF000021A6060E058
:1032C000BB79022B30D14FF44043C4F209031B6891
:1032D000DAB240F28043C1F200031A7040F2804338
:1032E000C1F200031B78DBB24FF00300194600F077
:1032F0001DFC40F2D003C1F200031B6803F1010280
:1033000040F2D003C1F200031A6040F2D003C1F2D0
:1033100000031B68402B34D140F2D003C1F20003FC
:103320004FF000021A602CE0BB79062B0CD140F262
:10333000F833C1F200031B6843F4807240F2F833A3
:10334000C1F200031A601CE0BB79012B19D14FF4C4
:103350004043C4F209035B697B717B7903F020036E
:10336000002B07D040F25B03C1F200034FF00102D3
:103370001A7006E040F25B03C1F200034FF0000256
:103380001A7007F10807BD4680BD00BF80B586B042
:1033900000AF786039604FF000033B617B68002B21
:1033A00040F086804FF44043C4F202034FF44042A1
:1033B000C4F20202126822F0F0021A604FF4404395
:1033C000C4F202034FF44042C4F20202126842F017
:1033D00050021A604FF44043C4F20F03D3F8A831EF
:1033E0004FEA931303F00303FB60FB68022B13D037
:1033F000032B1AD0012B08D040F25403C1F2000372
:103400001B684FEA93037B6118E040F25403C1F25A
:1034100000031B687B6111E040F25403C1F200031A
:103420001B684FEA53037B6108E040F25403C1F28A
:1034300000031B684FEAD3037B6100BF4FF4404396
:10344000C4F200034FF08302DA607B694FEA131283
:103450003B68B2FBF3F3BB604FF44043C4F200039C
:10346000BA684FEA12225A604FF44043C4F2000394
:10347000BA6802F0FF021A604FF44043C4F200033E
:103480004FF00302DA604FF44043C4F200034FF000
:1034900007029A604FF00500FFF7C8FB4FF4404366
:1034A000C4F200034FF005025A604FF00103CAE175
:1034B0007B68012B40F086804FF44043C4F2020346
:1034C0004FF44042C4F20202126922F00F021A6164
:1034D0004FF44043C4F202034FF44042C4F20202EC
:1034E000126942F00A021A614FF44043C4F20F031A
:1034F000D3F8A8314FEA132303F00303FB60FB6802
:10350000022B13D0032B1AD0012B08D040F2540306
:10351000C1F200031B684FEA93037B6118E040F29D
:103520005403C1F200031B687B6111E040F25403B5
:10353000C1F200031B684FEA53037B6108E040F2CD
:103540005403C1F200031B684FEAD3037B6100BF41
:103550004FF00003C4F201034FF08302DA607B698D
:103560004FEA13123B68B2FBF3F3BB604FF000036A
:10357000C4F20103BA684FEA12225A604FF0000306
:10358000C4F20103BA6802F0FF021A604FF00003B0
:10359000C4F201034FF00302DA604FF00003C4F2FB
:1035A00001034FF007029A604FF00600FFF73EFB61
:1035B0004FF00003C4F201034FF005025A604FF0D0
:1035C000010340E17B68022B40F094804FF44043BC
:1035D000C4F20F034FF44042C4F20F02D2F8C420E9
:1035E00042F08072C3F8C4204FF44043C4F2020397
:1035F0004FF44042C4F20202126822F470021A60D0
:103600004FF44043C4F202034FF44042C4F20202BA
:10361000126842F4A0021A604FF44043C4F20F0350
:10362000D3F8AC314FEA134303F00303FB60FB68AC
:10363000022B13D0032B1AD0012B08D040F25403D5
:10364000C1F200031B684FEA93037B6118E040F26C
:103650005403C1F200031B687B6111E040F2540384
:10366000C1F200031B684FEA53037B6108E040F29C
:103670005403C1F200031B684FEAD3037B6100BF10
:103680004FF40043C4F209034FF08302DA607B6910
:103690004FEA13123B68B2FBF3F3BB604FF40043F5
:1036A000C4F20903BA684FEA12225A604FF4004389
:1036B000C4F20903BA6802F0FF021A604FF4004333
:1036C000C4F209034FF00302DA604FF40043C4F27E
:1036D00009034FF007029A604FF00700FFF7A6FAC0
:1036E0004FF40043C4F209034FF005025A604FF053
:1036F0000103A8E07B68032B40F0A3804FF4404314
:10370000C4F20F034FF44042C4F20F02D2F8C420B7
:1037100042F00072C3F8C4204FF44043C4F20203E5
:103720004FF44042C4F20202126822F00F021A6003
:103730004FF44043C4F202034FF44042C4F2020289
:10374000126842F00A021A604FF44043C4F20F03B9
:10375000D3F8AC314FEA934303F00303FB60FB68FB
:10376000022B13D0032B1AD0012B08D040F25403A4
:10377000C1F200031B684FEA93037B6118E040F23B
:103780005403C1F200031B687B6111E040F2540353
:10379000C1F200031B684FEA53037B6108E040F26B
:1037A0005403C1F200031B684FEAD3037B6100BFDF
:1037B0004FF44043C4F209034FF08302DA607B699F
:1037C0004FEA13123B68B2FBF3F3BB604FF4404384
:1037D000C4F20903BA684FEA12225A604FF4404318
:1037E000C4F20903BA6802F0FF021A604FF44043C2
:1037F000C4F209034FF00302DA604FF44043C4F20D
:1038000009034FF007029A604FF00800FFF758FADB
:1038100038614FF008004FF00101FFF723FA4FF035
:103820000800FFF703FA4FF00800FFF7FFF94FF425
:103830004043C4F209034FF005025A604FF0010300
:1038400001E04FF00003184607F11807BD4680BDA0
:1038500080B485B000AFF860B9607A60FB68002B77
:1038600024D11FE000BF4FF44043C4F200035B6962
:1038700003F04003002BF6D04FF44043C4F20003A2
:10388000BA6812781A6040F25803C1F200034FF090
:1038900000021A70BB6803F10103BB607B6803F18F
:1038A000FF337B607B68002BDCD176E0FB68012B6B
:1038B00024D11FE000BF4FF00003C4F201035B6995
:1038C00003F04003002BF6D04FF00003C4F20103D5
:1038D000BA6812781A6040F25903C1F200034FF03F
:1038E00000021A70BB6803F10103BB607B6803F13F
:1038F000FF337B607B68002BDCD14EE0FB68022B42
:1039000024D11FE000BF4FF40043C4F209035B69F8
:1039100003F04003002BF6D04FF40043C4F2090338
:10392000BA6812781A6040F25A03C1F200034FF0ED
:1039300000021A70BB6803F10103BB607B6803F1EE
:10394000FF337B607B68002BDCD126E0FB68032B18
:1039500023D11FE000BF4FF44043C4F209035B6969
:1039600003F04003002BF6D04FF44043C4F20903A8
:10397000BA6812781A6040F25B03C1F200034FF09C
:1039800000021A70BB6803F10103BB607B6803F19E
:10399000FF337B607B68002BDCD107F11407BD4649
:1039A00080BC704780B483B000AF0346FB7140F227
:1039B000E003C1F200031B78DBB203F10103DAB2CA
:1039C00040F2E003C1F200031A7040F24853C1F222
:1039D00000031B78DBB2002B17D1FB79242B14D109
:1039E00040F25353C1F200034FF001021A7040F24B
:1039F000B553C1F200034FF000021A7040F2DF032A
:103A0000C1F200034FF000021A7040F25353C1F2AA
:103A100000031B78DBB2002B30D040F2B553C1F26B
:103A200000031B78DBB21A4640F2D453C1F2000304
:103A3000F979995440F2B453C1F200034FF00102F6
:103A40001A7040F25353C1F200034FF000021A7093
:103A500040F24853C1F200034FF001021A7040F2E5
:103A6000B553C1F200031B78DBB203F10103DAB2F4
:103A700040F2B553C1F200031A7051E040F2B45362
:103A8000C1F200031B78DBB2002B49D040F2B553E2
:103A9000C1F200031B78DBB21A4640F2D453C1F2E4
:103AA0000003F9799954FB790A2B2BD140F2B553D5
:103AB000C1F200031B78DBB203F1FF3240F2D453B2
:103AC000C1F200039B5CDBB20D2B1BD140F2B5535E
:103AD000C1F200034FF000021A7040F2B453C1F279
:103AE00000034FF000021A7040F24853C1F2000385
:103AF0004FF001021A7040F2DE03C1F200034FF0F2
:103B000001021A7040F2B553C1F200031B78DBB218
:103B100003F10103DAB240F2B553C1F200031A70A7
:103B200007F10C07BD4680BC704700BF80B584B06C
:103B300000AF02460B46FA71BB714FF00003FB73F6
:103B400040F25C03C1F200031B78052B5FD940F201
:103B5000D403C1F200031B78DBB29C2B27D140F2C7
:103B60005C03C1F200031B78A3F1050240F2A0231D
:103B7000C1F20003B979995440F25C03C1F2000329
:103B80001B7803F10103DAB240F25C03C1F20003D7
:103B90001A7040F25C03C1F200031B780F2B06D1B0
:103BA00040F2D603C1F200034FF001021A7040F256
:103BB000D403C1F200031B78DBB2252B27D140F2DE
:103BC0005C03C1F200031B78A3F1050240F24C0331
:103BD000C1F20003B979995440F25C03C1F20003C9
:103BE0001B7803F10103DAB240F25C03C1F2000377
:103BF0001A7040F25C03C1F200031B780B2B06D154
:103C000040F2D603C1F200034FF001021A7040F2F5
:103C10005C03C1F200031B78052B3FD140F2D403B3
:103C2000C1F200031B78DBB29C2B0DD140F2A02324
:103C3000C1F20003BA791A7040F25C03C1F20003CA
:103C40004FF006021A7029E040F2D403C1F20003DB
:103C50001B78DBB2252B0DD140F24C03C1F20003DF
:103C6000BA791A7040F25C03C1F200034FF0060209
:103C70001A7013E040F2D603C1F200034FF00102C4
:103C80001A7040F2D503C1F20003BA791A7040F2FB
:103C90005C03C1F200034FF005021A7040F25C03AE
:103CA000C1F200031B78042B0CD140F2D403C1F203
:103CB0000003BA791A7040F25C03C1F200034FF0BE
:103CC00005021A7040F25C03C1F200031B78032B5B
:103CD00011D1BB79582B07D140F25C03C1F200032C
:103CE0004FF004021A7006E040F25C03C1F20003D8
:103CF0004FF001021A7040F25C03C1F200031B781E
:103D0000022B11D1BB79452B07D140F25C03C1F2E4
:103D100000034FF003021A7006E040F25C03C1F2A8
:103D200000034FF001021A7040F25C03C1F200037D
:103D30001B78012B09D1BB794E2B06D140F25C03D5
:103D4000C1F200034FF002021A7040F2D603C1F232
:103D500000031B78DBB2002B02F0168540F2D4037F
:103D6000C1F200031B78DBB203F1FF33FB2B02F23D
:103D7000EA8401A252F823F06941000013420000D6
:103D800047670000BD420000674300006D4A000025
:103D9000A34A0000D94A00000F4B0000914C0000DC
:103DA000476700004767000047670000476700005B
:103DB00047670000414F00007D510000B9530000EB
:103DC000476700004767000047670000476700003B
:103DD000476700004767000047670000476700002B
:103DE000476700004767000047670000476700001B
:103DF00047670000F55500008F5600002957000066
:103E0000C357000097580000D15B000047670000CF
:103E100047670000476700004767000047670000EA
:103E200047670000476700004767000047670000DA
:103E300047670000476700004767000047670000CA
:103E400047670000476700004767000047670000BA
:103E500047670000476700004767000047670000AA
:103E6000476700004767000047670000476700009A
:103E7000476700004767000047670000476700008A
:103E8000476700004767000047670000476700007A
:103E9000476700004767000047670000476700006A
:103EA000476700004767000047670000476700005A
:103EB000476700004767000047670000476700004A
:103EC000476700004767000047670000476700003A
:103ED000476700004767000047670000476700002A
:103EE000476700004767000047670000476700001A
:103EF000476700004767000047670000476700000A
:103F000047670000476700004767000047670000F9
:103F100047670000476700004767000047670000E9
:103F200047670000476700004767000047670000D9
:103F300047670000476700004767000047670000C9
:103F400047670000476700004767000047670000B9
:103F500047670000476700004767000047670000A9
:103F60004767000047670000476700004767000099
:103F70004767000047670000476700004767000089
:103F80004767000047670000476700004767000079
:103F90004767000047670000DF5B000047670000DD
:103FA00047670000075C00004767000047670000A4
:103FB00047670000195C0000415C0000C75C00001E
:103FC000BD5D0000B35E0000A15F0000B95F0000AE
:103FD000D15F00002361000049610000E36100003F
:103FE0007D6200001763000047670000476700001C
:103FF0004767000047670000476700004767000009
:1040000047670000476700004767000047670000F8
:104010004767000047670000476700009F64000093
:1040200039650000476700004767000047670000E8
:1040300047670000476700004767000047670000C8
:1040400047670000476700004767000047670000B8
:1040500047670000476700004767000047670000A8
:104060004767000047670000476700004767000098
:104070004767000047670000476700004767000088
:104080004767000047670000476700004767000078
:104090004767000047670000476700004767000068
:1040A0004767000047670000476700004767000058
:1040B0004767000047670000476700004767000048
:1040C0004767000047670000476700004767000038
:1040D0004767000047670000476700004767000028
:1040E0004767000047670000476700004767000018
:1040F0004767000047670000476700004767000008
:1041000047670000476700004767000047670000F7
:1041100047670000476700004767000047670000E7
:1041200047670000476700004767000047670000D7
:1041300047670000476700004767000047670000C7
:1041400047670000476700004767000047670000B7
:10415000476700004767000047670000D36500001D
:104160004F660000CB66000040F23C43C1F2000302
:104170004FF046021A7040F23C43C1F200034FF088
:1041800042025A7040F23C43C1F200034FF0440235
:104190009A7040F2D403C1F200031B78DAB240F205
:1041A0003C43C1F20003DA7040F2D503C1F20003D0
:1041B0001B78DAB240F23C43C1F200031A7140F2BC
:1041C000D503C1F200031B78DBB203F1FF3240F2EA
:1041D0000003C1F200039A5C40F23C43C1F20003C9
:1041E0005A7140F2D703C1F200034FF006021A7071
:1041F000FA7940F2D703C1F200031B78DBB2104614
:1042000040F23C41C1F200011A46FFF721FB02F0E7
:10421000ADBA40F23C43C1F200034FF046021A70BF
:1042200040F23C43C1F200034FF042025A7040F2A8
:104230003C43C1F200034FF044029A7040F2D403B1
:10424000C1F200031B78DAB240F23C43C1F2000332
:10425000DA7040F2D503C1F200031B78DAB240F203
:104260003C43C1F200031A7140F2D503C1F20003CE
:104270001B78DBB203F1FF3240F21003C1F20003FE
:104280009A5C40F23C43C1F200035A7140F2D703FA
:10429000C1F200034FF006021A70FA7940F2D70318
:1042A000C1F200031B78DBB2104640F23C41C1F280
:1042B00000011A46FFF7CCFA02F058BA40F23C432C
:1042C000C1F200034FF046021A7040F23C43C1F2C3
:1042D00000034FF042025A7040F23C43C1F2000327
:1042E0004FF044029A7040F2D403C1F200031B78ED
:1042F000DAB240F23C43C1F20003DA7040F2D50377
:10430000C1F200031B78DAB240F23C43C1F2000371
:104310001A7140F2D503C1F200031B78DBB203F13E
:10432000FF3240F20803C1F200039A5C40F23C43C2
:10433000C1F200035A7140F2D703C1F200034FF0FB
:1043400006021A70FA7940F2D703C1F200031B7813
:10435000DBB2104640F23C41C1F200011A46FFF7C1
:1043600077FA02F003BA40F2D503C1F200031B78DA
:10437000DBB2012B5BD140F23C43C1F200034FF0B2
:1043800046021A7040F23C43C1F200034FF0420271
:104390005A7040F23C43C1F200034FF044029A705D
:1043A00040F2D403C1F200031B78DAB240F23C437E
:1043B000C1F20003DA7040F2D503C1F200031B78AA
:1043C000DAB240F23C43C1F200031A714FF000032D
:1043D000FB7311E0FB7B03F10502F97B40F2000364
:1043E000C1F20003595C40F23C43C1F2000399540E
:1043F000FB7B03F10103FB73FB7B072BEAD940F244
:10440000D703C1F200034FF00D021A70FA7940F29F
:10441000D703C1F200031B78DBB2104640F23C41E7
:10442000C1F200011A46FFF713FA02F09FB940F2F9
:10443000D503C1F200031B78DBB2022B5BD140F243
:104440003C43C1F200034FF046021A7040F23C4375
:10445000C1F200034FF042025A7040F23C43C1F2F5
:1044600000034FF044029A7040F2D403C1F20003FB
:104470001B78DAB240F23C43C1F20003DA7040F23A
:10448000D503C1F200031B78DAB240F23C43C1F21B
:1044900000031A714FF00003FB7311E0FB7B03F183
:1044A0000502F97B40F21003C1F20003595C40F2AF
:1044B0003C43C1F200039954FB7B03F10103FB73FE
:1044C000FB7B072BEAD940F2D703C1F200034FF080
:1044D0000D021A70FA7940F2D703C1F200031B787B
:1044E000DBB2104640F23C41C1F200011A46FFF730
:1044F000AFF902F03BB940F2D503C1F200031B78DB
:10450000DBB2042B5BD140F23C43C1F200034FF01D
:1045100046021A7040F23C43C1F200034FF04202DF
:104520005A7040F23C43C1F200034FF044029A70CB
:1045300040F2D403C1F200031B78DAB240F23C43EC
:10454000C1F20003DA7040F2D503C1F200031B7818
:10455000DAB240F23C43C1F200031A714FF000039B
:10456000FB7311E0FB7B03F10502F97B40F20803CA
:10457000C1F20003595C40F23C43C1F2000399547C
:10458000FB7B03F10103FB73FB7B072BEAD940F2B2
:10459000D703C1F200034FF00D021A70FA7940F20E
:1045A000D703C1F200031B78DBB2104640F23C4156
:1045B000C1F200011A46FFF74BF902F0D7B840F2FA
:1045C000D503C1F200031B78DBB2052B5BD140F2AF
:1045D0003C43C1F200034FF046021A7040F23C43E4
:1045E000C1F200034FF042025A7040F23C43C1F264
:1045F00000034FF044029A7040F2D403C1F200036A
:104600001B78DAB240F23C43C1F20003DA7040F2A8
:10461000D503C1F200031B78DAB240F23C43C1F289
:1046200000031A714FF00003FB7311E0FB7B03F1F1
:104630000502F97B40F21803C1F20003595C40F215
:104640003C43C1F200039954FB7B03F10103FB736C
:10465000FB7B052BEAD940F2D703C1F200034FF0F0
:104660000B021A70FA7940F2D703C1F200031B78EB
:10467000DBB2104640F23C41C1F200011A46FFF79E
:10468000E7F802F073B840F2D503C1F200031B78DB
:10469000DBB2062B5BD140F23C43C1F200034FF08A
:1046A00046021A7040F23C43C1F200034FF042024E
:1046B0005A7040F23C43C1F200034FF044029A703A
:1046C00040F2D403C1F200031B78DAB240F23C435B
:1046D000C1F20003DA7040F2D503C1F200031B7887
:1046E000DAB240F23C43C1F200031A714FF000030A
:1046F000FB7311E0FB7B03F10502F97B40F2200321
:10470000C1F20003595C40F23C43C1F200039954EA
:10471000FB7B03F10103FB73FB7B052BEAD940F222
:10472000D703C1F200034FF00B021A70FA7940F27E
:10473000D703C1F200031B78DBB2104640F23C41C4
:10474000C1F200011A46FFF783F802F00FB840F2F9
:10475000D503C1F200031B78DBB2072B5BD140F21B
:104760003C43C1F200034FF046021A7040F23C4352
:10477000C1F200034FF042025A7040F23C43C1F2D2
:1047800000034FF044029A7040F2D403C1F20003D8
:104790001B78DAB240F23C43C1F20003DA7040F217
:1047A000D503C1F200031B78DAB240F23C43C1F2F8
:1047B00000031A714FF00003FB7311E0FB7B03F160
:1047C0000502F97B40F22803C1F20003595C40F274
:1047D0003C43C1F200039954FB7B03F10103FB73DB
:1047E000FB7B052BEAD940F2D703C1F200034FF05F
:1047F0000B021A70FA7940F2D703C1F200031B785A
:10480000DBB2104640F23C41C1F200011A46FFF70C
:104810001FF801F0ABBF40F2D503C1F200031B78D3
:10482000DBB2082B5BD140F23C43C1F200034FF0F6
:1048300046021A7040F23C43C1F200034FF04202BC
:104840005A7040F23C43C1F200034FF044029A70A8
:1048500040F2D403C1F200031B78DAB240F23C43C9
:10486000C1F20003DA7040F2D503C1F200031B78F5
:10487000DAB240F23C43C1F200031A714FF0000378
:10488000FB7311E0FB7B03F10502F97B40F23C0373
:10489000C1F20003595C40F23C43C1F20003995459
:1048A000FB7B03F10103FB73FB7B0F2BEAD940F287
:1048B000D703C1F200034FF015021A70FA7940F2E3
:1048C000D703C1F200031B78DBB2104640F23C4133
:1048D000C1F200011A46FEF7BBFF01F047BF40F2EC
:1048E000D503C1F200031B78DBB2092B5AD140F289
:1048F0003C43C1F200034FF046021A7040F23C43C1
:10490000C1F200034FF042025A7040F23C43C1F240
:1049100000034FF044029A7040F2D403C1F2000346
:104920001B78DAB240F23C43C1F20003DA7040F285
:10493000D503C1F200031B78DAB240F23C43C1F266
:1049400000031A7140F26403C1F200031B68DAB27B
:1049500040F23C43C1F200035A7140F26403C1F2D9
:1049600000031B684FEA1323DAB240F23C43C1F262
:1049700000039A7140F2D703C1F200034FF007021F
:104980001A70FA7940F2D703C1F200031B78DBB248
:10499000104640F23C41C1F200011A46FEF758FFB2
:1049A00001F0E4BE40F2D503C1F200031B78DBB294
:1049B0000A2B41F0CA8640F23C43C1F200034FF09B
:1049C00046021A7040F23C43C1F200034FF042022B
:1049D0005A7040F23C43C1F200034FF044029A7017
:1049E00040F2D403C1F200031B78DAB240F23C4338
:1049F000C1F20003DA7040F2D503C1F200031B7864
:104A0000DAB240F23C43C1F200031A7140F268038B
:104A1000C1F200031B68DAB240F23C43C1F200036A
:104A20005A7140F26803C1F200031B684FEA132376
:104A3000DAB240F23C43C1F200039A7140F2D7036C
:104A4000C1F200034FF007021A70FA7940F2D7035F
:104A5000C1F200031B78DBB2104640F23C41C1F2C8
:104A600000011A46FEF7F4FE01F080BE40F2D503C5
:104A7000C1F200031B78DAB240F27F03C1F20003F7
:104A80001A7040F2C003C1F200034FF001021A7025
:104A900040F2C103C1F200034FF001021A7001F0AD
:104AA00065BE40F2D503C1F200031B78DAB240F2D2
:104AB0008003C1F200031A7040F2C003C1F2000388
:104AC0004FF001021A7040F2C103C1F200034FF02F
:104AD00002021A7001F04ABE40F2D503C1F200038F
:104AE0001B78DAB240F28103C1F200031A7040F27F
:104AF000C003C1F200034FF001021A7040F2C1037B
:104B0000C1F200034FF003021A7001F02FBE40F211
:104B1000D503C1F200031B78DBB2012B0FD140F2A9
:104B2000BA03C1F200034FF001021A7040F2BD0354
:104B3000C1F200034FF001021A7001F017BE40F2FB
:104B4000D503C1F200031B78DBB2022B0FD140F278
:104B5000BA03C1F200034FF001021A7040F2BD0324
:104B6000C1F200034FF000021A7001F0FFBD40F2E5
:104B7000D503C1F200031B78DBB2032B0FD140F247
:104B8000BB03C1F200034FF001021A7040F2BE03F2
:104B9000C1F200034FF001021A7001F0E7BD40F2CC
:104BA000D503C1F200031B78DBB2042B0FD140F216
:104BB000BB03C1F200034FF001021A7040F2BE03C2
:104BC000C1F200034FF000021A7001F0CFBD40F2B5
:104BD000D503C1F200031B78DBB2052B0FD140F2E5
:104BE000BC03C1F200034FF001021A7040F2BF0390
:104BF000C1F200034FF001021A7001F0B7BD40F29C
:104C0000D503C1F200031B78DBB2062B0FD140F2B3
:104C1000BC03C1F200034FF001021A7040F2BF035F
:104C2000C1F200034FF000021A7001F09FBD40F284
:104C3000D503C1F200031B78DBB2072B0FD14CF276
:104C40002003C2F209034FF000529A6140F26F0351
:104C5000C1F200034FF001021A7001F087BD40F26B
:104C6000D503C1F200031B78DBB2082B41F06F853E
:104C70004CF22003C2F209034FF00052DA6140F215
:104C80006F03C1F200034FF000021A7001F06EBD15
:104C900040F2D503C1F200031B78DBB2012B4DD1EA
:104CA00040F23C43C1F200034FF046021A7040F25A
:104CB0003C43C1F200034FF042025A7040F23C43C1
:104CC000C1F200034FF044029A7040F2D403C1F2E3
:104CD00000031B78DAB240F23C43C1F20003DA7001
:104CE00040F2D503C1F200031B78DAB240F23C4334
:104CF000C1F200031A7140F2BD03C1F200031B7838
:104D0000DAB240F23C43C1F200035A7140F2D703D9
:104D1000C1F200034FF006021A70FA7940F2D7038D
:104D2000C1F200031B78DBB2104640F23C41C1F2F5
:104D300000011A46FEF78CFD01F018BD40F2D503C4
:104D4000C1F200031B78DBB2022B4DD140F23C4391
:104D5000C1F200034FF046021A7040F23C43C1F228
:104D600000034FF042025A7040F23C43C1F200038C
:104D70004FF044029A7040F2D403C1F200031B7852
:104D8000DAB240F23C43C1F20003DA7040F2D503DC
:104D9000C1F200031B78DAB240F23C43C1F20003D7
:104DA0001A7140F2BE03C1F200031B78DAB240F27E
:104DB0003C43C1F200035A7140F2D703C1F2000331
:104DC0004FF006021A70FA7940F2D703C1F20003DD
:104DD0001B78DBB2104640F23C41C1F200011A469A
:104DE000FEF736FD01F0C2BC40F2D503C1F200036C
:104DF0001B78DBB2032B4DD140F23C43C1F20003E0
:104E00004FF046021A7040F23C43C1F200034FF0EB
:104E100042025A7040F23C43C1F200034FF0440298
:104E20009A7040F2D403C1F200031B78DAB240F268
:104E30003C43C1F20003DA7040F2D503C1F2000333
:104E40001B78DAB240F23C43C1F200031A7140F21F
:104E5000BF03C1F200031B78DAB240F23C43C1F257
:104E600000035A7140F2D703C1F200034FF006026B
:104E70001A70FA7940F2D703C1F200031B78DBB253
:104E8000104640F23C41C1F200011A46FEF7E0FC38
:104E900001F06CBC40F2D503C1F200031B78DBB219
:104EA000042B41F0568440F23C43C1F200034FF022
:104EB00046021A7040F23C43C1F200034FF0420236
:104EC0005A7040F23C43C1F200034FF044029A7022
:104ED00040F2D403C1F200031B78DAB240F23C4343
:104EE000C1F20003DA7040F2D503C1F200031B786F
:104EF000DAB240F23C43C1F200031A7140F26F0390
:104F0000C1F200031A7840F23C43C1F200035A7127
:104F100040F2D703C1F200034FF006021A70FA798B
:104F200040F2D703C1F200031B78DBB2104640F217
:104F30003C41C1F200011A46FEF78AFC01F016BCA2
:104F400040F2D503C1F200031B78DBB2012B56D12E
:104F500040F23C43C1F200034FF046021A7040F2A7
:104F60003C43C1F200034FF042025A7040F23C430E
:104F7000C1F200034FF044029A7040F2D403C1F230
:104F800000031B78DAB240F23C43C1F20003DA704E
:104F900040F2D503C1F200031B78DAB240F23C4381
:104FA000C1F200031A7140F21803C1F200031A782B
:104FB00040F23C43C1F200035A7140F21803C1F2BF
:104FC00000035A7840F23C43C1F200039A7140F268
:104FD000D703C1F200034FF007021A70FA7940F2CA
:104FE000D703C1F200031B78DBB2104640F23C410C
:104FF000C1F200011A46FEF72BFC01F0B7BB40F2EC
:10500000D503C1F200031B78DBB2022B56D140F26C
:105010003C43C1F200034FF046021A7040F23C4399
:10502000C1F200034FF042025A7040F23C43C1F219
:1050300000034FF044029A7040F2D403C1F200031F
:105040001B78DAB240F23C43C1F20003DA7040F25E
:10505000D503C1F200031B78DAB240F23C43C1F23F
:1050600000031A7140F21803C1F200039A7840F26B
:105070003C43C1F200035A7140F21803C1F200032D
:10508000DA7840F23C43C1F200039A7140F2D70350
:10509000C1F200034FF007021A70FA7940F2D70309
:1050A000C1F200031B78DBB2104640F23C41C1F272
:1050B00000011A46FEF7CCFB01F058BB40F2D503C5
:1050C000C1F200031B78DBB2032B41F0448340F2B2
:1050D0003C43C1F200034FF046021A7040F23C43D9
:1050E000C1F200034FF042025A7040F23C43C1F259
:1050F00000034FF044029A7040F2D403C1F200035F
:105100001B78DAB240F23C43C1F20003DA7040F29D
:10511000D503C1F200031B78DAB240F23C43C1F27E
:1051200000031A7140F21803C1F200031A7940F229
:105130003C43C1F200035A7140F21803C1F200036C
:105140005A7940F23C43C1F200039A7140F2D7030E
:10515000C1F200034FF007021A70FA7940F2D70348
:10516000C1F200031B78DBB2104640F23C41C1F2B1
:1051700000011A46FEF76CFB01F0F8BA40F2D503C5
:10518000C1F200031B78DBB2012B56D140F23C4345
:10519000C1F200034FF046021A7040F23C43C1F2E4
:1051A00000034FF042025A7040F23C43C1F2000348
:1051B0004FF044029A7040F2D403C1F200031B780E
:1051C000DAB240F23C43C1F20003DA7040F2D50398
:1051D000C1F200031B78DAB240F23C43C1F2000393
:1051E0001A7140F22003C1F200031A7840F23C43E6
:1051F000C1F200035A7140F22003C1F200035A7851
:1052000040F23C43C1F200039A7140F2D703C1F26D
:1052100000034FF007021A70FA7940F2D703C1F287
:1052200000031B78DBB2104640F23C41C1F20001A2
:105230001A46FEF70DFB01F099BA40F2D503C1F210
:1052400000031B78DBB2022B56D140F23C43C1F283
:1052500000034FF046021A7040F23C43C1F20003D3
:105260004FF042025A7040F23C43C1F200034FF04B
:1052700044029A7040F2D403C1F200031B78DAB200
:1052800040F23C43C1F20003DA7040F2D503C1F2B0
:1052900000031B78DAB240F23C43C1F200031A71FA
:1052A00040F22003C1F200039A7840F23C43C1F27D
:1052B00000035A7140F22003C1F20003DA7840F291
:1052C0003C43C1F200039A7140F2D703C1F20003DC
:1052D0004FF007021A70FA7940F2D703C1F20003C7
:1052E0001B78DBB2104640F23C41C1F200011A4685
:1052F000FEF7AEFA01F03ABA40F2D503C1F200036C
:105300001B78DBB2032B41F0288240F23C43C1F210
:1053100000034FF046021A7040F23C43C1F2000312
:105320004FF042025A7040F23C43C1F200034FF08A
:1053300044029A7040F2D403C1F200031B78DAB23F
:1053400040F23C43C1F20003DA7040F2D503C1F2EF
:1053500000031B78DAB240F23C43C1F200031A7139
:1053600040F22003C1F200031A7940F23C43C1F23B
:1053700000035A7140F22003C1F200035A7940F24F
:105380003C43C1F200039A7140F2D703C1F200031B
:105390004FF007021A70FA7940F2D703C1F2000306
:1053A0001B78DBB2104640F23C41C1F200011A46C4
:1053B000FEF74EFA01F0DAB940F2D503C1F200036C
:1053C0001B78DBB2012B56D140F23C43C1F2000303
:1053D0004FF046021A7040F23C43C1F200034FF016
:1053E00042025A7040F23C43C1F200034FF04402C3
:1053F0009A7040F2D403C1F200031B78DAB240F293
:105400003C43C1F20003DA7040F2D503C1F200035D
:105410001B78DAB240F23C43C1F200031A7140F249
:105420002803C1F200031A7840F23C43C1F20003A2
:105430005A7140F22803C1F200035A7840F23C430B
:10544000C1F200039A7140F2D703C1F200034FF09A
:1054500007021A70FA7940F2D703C1F200031B78F1
:10546000DBB2104640F23C41C1F200011A46FEF7A1
:10547000EFF901F07BB940F2D503C1F200031B78CC
:10548000DBB2022B56D140F23C43C1F200034FF095
:1054900046021A7040F23C43C1F200034FF0420250
:1054A0005A7040F23C43C1F200034FF044029A703C
:1054B00040F2D403C1F200031B78DAB240F23C435D
:1054C000C1F20003DA7040F2D503C1F200031B7889
:1054D000DAB240F23C43C1F200031A7140F22803F1
:1054E000C1F200039A7840F23C43C1F200035A71C2
:1054F00040F22803C1F20003DA7840F23C43C1F2E3
:1055000000039A7140F2D703C1F200034FF0070283
:105510001A70FA7940F2D703C1F200031B78DBB2AC
:10552000104640F23C41C1F200011A46FEF790F9E4
:1055300001F01CB940F2D503C1F200031B78DBB2C5
:10554000032B41F00C8140F23C43C1F200034FF0C9
:1055500046021A7040F23C43C1F200034FF042028F
:105560005A7040F23C43C1F200034FF044029A707B
:1055700040F2D403C1F200031B78DAB240F23C439C
:10558000C1F20003DA7040F2D503C1F200031B78C8
:10559000DAB240F23C43C1F200031A7140F2280330
:1055A000C1F200031A7940F23C43C1F200035A7180
:1055B00040F22803C1F200035A7940F23C43C1F2A1
:1055C00000039A7140F2D703C1F200034FF00702C3
:1055D0001A70FA7940F2D703C1F200031B78DBB2EC
:1055E000104640F23C41C1F200011A46FEF730F984
:1055F00001F0BCB840F23C43C1F200034FF0460258
:105600001A7040F23C43C1F200034FF042025A705C
:1056100040F23C43C1F200034FF044029A7040F262
:10562000D403C1F200031B78DAB240F23C43C1F26A
:105630000003DA7040F2D503C1F200031B78DAB23E
:1056400040F23C43C1F200031A7140F23003C1F250
:1056500000031A7840F23C43C1F200035A7140F251
:10566000D703C1F200034FF006021A70FA7940F234
:10567000D703C1F200031B78DBB2104640F23C4175
:10568000C1F200011A46FEF7E3F801F06FB840F2EC
:105690003C43C1F200034FF046021A7040F23C4313
:1056A000C1F200034FF042025A7040F23C43C1F293
:1056B00000034FF044029A7040F2D403C1F2000399
:1056C0001B78DAB240F23C43C1F20003DA7040F2D8
:1056D000D503C1F200031B78DAB240F23C43C1F2B9
:1056E00000031A7140F23003C1F200035A7840F20D
:1056F0003C43C1F200035A7140F2D703C1F20003E8
:105700004FF006021A70FA7940F2D703C1F2000393
:105710001B78DBB2104640F23C41C1F200011A4650
:10572000FEF796F801F022B840F23C43C1F20003C4
:105730004FF046021A7040F23C43C1F200034FF0B2
:1057400042025A7040F23C43C1F200034FF044025F
:105750009A7040F2D403C1F200031B78DAB240F22F
:105760003C43C1F20003DA7040F2D503C1F20003FA
:105770001B78DAB240F23C43C1F200031A7140F2E6
:105780003003C1F200039A7840F23C43C1F20003B7
:105790005A7140F2D703C1F200034FF006021A70AB
:1057A000FA7940F2D703C1F200031B78DBB210464E
:1057B00040F23C41C1F200011A46FEF749F800F000
:1057C000D5BF40F2D503C1F200031B78DBB2002B3A
:1057D00040F0C78740F23C43C1F200034FF046025D
:1057E0001A7040F23C43C1F200034FF042025A707B
:1057F00040F23C43C1F200034FF044029A7040F281
:10580000D403C1F200031B78DAB240F23C43C1F288
:105810000003DA7040F2D503C1F200031B78DAB25C
:1058200040F23C43C1F200031A7140F23003C1F26E
:1058300000031A7840F23C43C1F200035A7140F26F
:105840003003C1F200035A7840F23C43C1F2000336
:105850009A7140F23003C1F200039A7840F23C435F
:10586000C1F20003DA7140F2D703C1F200034FF036
:1058700008021A70FA7940F2D703C1F200031B78CC
:10588000DBB2104640F23C41C1F200011A46FDF77E
:10589000DFFF00F06BBF40F23C43C1F200034FF06A
:1058A00046021A7040F23C43C1F200034FF042023C
:1058B0005A7040F23C43C1F200034FF044029A7028
:1058C00040F2D403C1F200031B78DAB240F23C4349
:1058D000C1F20003DA7040F2D503C1F200031B7875
:1058E000DAB240F23C43C1F200031A714FF00003F8
:1058F000FB7311E0FB7B03F10502F97B40F200032F
:10590000C1F20003595C40F23C43C1F200039954D8
:10591000FB7B03F10103FB73FB7B072BEAD940F20E
:10592000D703C1F200034FF005021A704FF00003D5
:10593000FB7311E0FB7B03F10D02F97B40F21003D6
:10594000C1F20003595C40F23C43C1F20003995498
:10595000FB7B03F10103FB73FB7B072BEAD940F2CE
:10596000D703C1F200031B78DBB203F10D03DAB2F7
:1059700040F2D703C1F200031A704FF00003FB732B
:1059800011E0FB7B03F11502F97B40F20803C1F241
:105990000003595C40F23C43C1F200039954FB7B85
:1059A00003F10103FB73FB7B072BEAD940F2D7031A
:1059B000C1F200031B78DBB203F11503DAB240F247
:1059C000D703C1F200031A704FF00003FB7311E01C
:1059D000FB7B03F11D02F97B40F21803C1F20003C7
:1059E000595C40F23C43C1F200039954FB7B03F144
:1059F0000103FB73FB7B052BEAD940F2D703C1F20D
:105A000000031B78DBB203F11D03DAB240F2D703C7
:105A1000C1F200031A704FF00003FB7311E0FB7B2F
:105A200003F12302F97B40F22003C1F20003595C29
:105A300040F23C43C1F200039954FB7B03F10103A4
:105A4000FB73FB7B052BEAD940F2D703C1F20003BD
:105A50001B78DBB203F12303DAB240F2D703C1F2C1
:105A600000031A704FF00003FB7311E0FB7B03F19E
:105A70002902F97B40F22803C1F20003595C40F28D
:105A80003C43C1F200039954FB7B03F10103FB7318
:105A9000FB7B052BEAD940F2D703C1F200031B7848
:105AA000DBB203F12903DAB240F2D703C1F20003FB
:105AB0001A7040F26403C1F200031B68DAB240F2CC
:105AC0003C43C1F2000383F82F2040F26403C1F28B
:105AD00000031B684FEA1323DAB240F23C43C1F2E1
